:020000040800F2
:1000000000800120093D0008910C00089D0C0008AB
:10001000A30C0008A90C0008AF0C000800000000A9
:10002000000000000000000000000000B50C000807
:10003000C10C000800000000CD0C0008D90C00081D
:10004000593D0008593D0008593D0008593D000838
:10005000593D0008593D0008593D0008593D000828
:10006000593D0008593D0008593D0008593D000818
:10007000593D0008593D0008593D0008593D000808
:10008000593D0008593D0008593D00080000000096
:10009000000000000000000000000000593D0008C2
:1000A000593D0008593D0008593D0008E50C00087D
:1000B000593D0008593D0008593D0008593D0008C8
:1000C000593D0008593D0008593D0008593D0008B8
:1000D000593D0008593D0008593D00080000000046
:1000E000593D0008593D0008593D00080000000036
:1000F000000000000000000000000000593D000862
:1001000000000000593D0008593D0008593D000815
:1001100000000000000000000000000000000000DF
:10012000593D0008593D0008593D0008593D000857
:10013000593D000800000000000000000000000021
:10014000000000000000000000000000593D000811
:10015000593D0008593D0008593D0008593D000827
:10016000593D0008593D0008000000000000000053
:10017000000000000000000000000000000000007F
:1001800000000000593D00080000000000000000D1
:04019000593D0008CD
:1001A00010B5054C237833B9044B13B10448AFF3B1
:1001B00000800123237010BD7000002000000000AB
:1001C000604D000808B5034B1BB103490348AFF36A
:1001D000008008BD0000000074000020604D000891
:1001E00053B94AB9002908BF00281CBF4FF0FF319E
:1001F0004FF0FF3000F06CB9ADF1080C6DE904CEA2
:1002000000F006F8DDF804E0DDE9022304B07047F1
:100210002DE9F047089E0D4604468E46002B40F01F
:1002200082808A42174646D9B2FA82F24AB1C2F1B6
:10023000200105FA02F320FA01F1974041EA030E8A
:1002400094404FEA1748230CBEFBF8FCB9B208FBF8
:100250001CEE43EA0E430CFB01F098420AD9FB184E
:100260000CF1FF3580F01681984240F21381ACF119
:10027000020C3B441B1AA4B2B3FBF8F008FB10338A
:1002800044EA034400FB01F1A14209D93C1900F101
:10029000FF3380F00181A14240F2FE8002383C44ED
:1002A000641A40EA0C4000211EB1D4400023C6E984
:1002B0000043BDE8F08702B9FFDEB2FA82F2002AFD
:1002C0004FD1CB1B4FEA174E1FFA87F80121B3FB22
:1002D000FEFC250C0EFB1C3345EA034508FB0CF322
:1002E000AB4207D97D190CF1FF3002D2AB4200F2CC
:1002F000E7808446ED1AA3B2B5FBFEF00EFB105565
:1003000043EA054408FB00F8A04507D93C1900F171
:10031000FF3302D2A04500F2D7801846A4EB0804B0
:1003200040EA0C40C0E78B4208D9002E00F0AF80B5
:100330000021C6E900050846BDE8F087B3FA83F15D
:1003400000294BD1AB4202D3824200F2B780841A1B
:1003500065EB030301209E46002EAAD0C6E9004E9D
:10036000A7E7C2F1200C01FA02F3974020FA0CF043
:100370004FEA174E21FA0CFC1843BCFBFEF1050CAA
:100380000EFB11CC1FFA87F845EA0C4501FB08F378
:10039000AB4204FA02F409D97D1901F1FF3C80F067
:1003A0008B80AB4240F2888002393D44EB1A85B223
:1003B000B3FBFEF00EFB103345EA034500FB08F3E8
:1003C000AB4207D97D1900F1FF3C71D2AB426FD926
:1003D00002383D44EB1A40EA014178E7C1F1200CB4
:1003E0008B4022FA0CF71F4320FA0CF405FA01F3B4
:1003F0004FEA174E25FA0CF51C43230CB5FBFEF90A
:100400001FFA87F80EFB195543EA054509FB08FA60
:10041000AA4502FA01F200FA01F308D97D1909F19F
:10042000FF3047D2AA4545D9A9F102093D44A5EBC1
:100430000A05A4B2B5FBFEF00EFB105544EA0544D4
:1004400000FB08F8A04507D93C1900F1FF352DD273
:10045000A0452BD902383C4440EA0940A4EB0804EB
:10046000A0FB02894C45C6464D4619D316D05EB155
:10047000B3EB0E0264EB050404FA0CFCCA404CEA30
:100480000202CC40C6E900240021BDE8F0873146D5
:1004900030460EE7AC46EDE6184601E74345E6D2A6
:1004A000B8EB020E69EB07050138E0E72846D3E711
:1004B00060468FE78146BAE7614677E708464BE733
:1004C000ACF1020C3D4415E702383C4426E700BF7E
:1004D000704700BF000000000000000000000000A6
:1004E00001F0FF01102A2BDB10F0070F08D010F8E5
:1004F000013B013A8B422DD010F0070F42B3F6D1E9
:10050000F0B441EA012141EA014122F007047FF001
:1005100000070023F0E80256083C85EA010586EA58
:10052000010685FA47F5A3FA87F586FA47F6A5FA94
:1005300087F68EB9EED1F0BC01F0FF0102F00702A0
:1005400032B110F8013B013A83EA010313B1F8D14B
:100550000020704701387047002D06BF354603382C
:10056000073815F0010F07D1013015F4807F02BF65
:10057000013015F4C03F0130F0BC0138704700BFB6
:1005800080B584B002AF01F0B9F900F075F800F061
:1005900095F900F011F900F0D9F800F065F90021A3
:1005A000304802F03DFC304803F040FD00F03CFCD8
:1005B0000346002B02D04FF0FF334FE02B4803F0EF
:1005C00035FD01F007F801F057F84FF4FA7001F02B
:1005D00003FA43F698237B807B88184603F0E8FBF8
:1005E00003461A46224B1A60214B1B68002B03D18D
:1005F000204803F01BFD31E01D4B1868FF230093DA
:1006000000234FF496724FF4C87100F025FC184B8C
:100610001B68184600F074FCFF2000F093FD0A23CD
:100620007B6017E07B6898B20123009301230022CE
:10063000502100F0B9FD0E4B1B6800936423C822C3
:100640003221002001F060F8322001F0C5F97B680A
:1006500001337B607B68632BE4DDFEE718460837D7
:10066000BD4680BDE4000020784D00088C4D000898
:1006700064010020A84D000880B594B000AF07F1D8
:10068000200330220021184603F09AFB07F10C03E7
:1006900000221A605A609A60DA601A610023BB6017
:1006A000284B1B6C274A43F080531364254B1B6C6B
:1006B00003F08053BB60BB6800237B60224B1B6848
:1006C00023F44043204A43F4004313601E4B1B684D
:1006D00003F440437B607B6802233B620123FB629F
:1006E00010233B630223BB630023FB6308233B64AB
:1006F00054237B640223BB640723FB6407F12003BC
:10070000184601F04DFC0346002B01D000F0AEF975
:100710000F23FB6002233B6100237B614FF4805376
:10072000BB610023FB6107F10C030221184601F0B5
:10073000A7FE0346002B01D000F098F900BF503708
:10074000BD4680BD003802400070004080B500AF5B
:10075000174B184A1A60164B4FF482725A60144BAA
:1007600000229A60124B0022DA60114B00221A61BB
:100770000F4B00225A610E4B4FF400729A610C4BE2
:100780002822DA610A4B00221A62094B00225A62BF
:10079000074B00229A62064B0A22DA62044802F0F2
:1007A00069F80346002B01D000F060F900BF80BD5E
:1007B0008C0000200030014080B58CB000AF07F104
:1007C0000C0324220021184603F0FAFA3B1D0022F4
:1007D0001A605A60224B234A1A60214B00225A6049
:1007E0001F4B00229A601E4B4FF6FF72DA601C4BC3
:1007F0004FF400721A611A4B00225A61184B002202
:100800009A610123FB6000233B6101237B6100238C
:10081000BB610F23FB6102233B6201237B62082340
:10082000BB620023FB6207F10C0319460C4802F07F
:1008300065FA0346002B01D000F018F900237B6015
:100840000023BB603B1D1946054802F00FFD03461F
:10085000002B01D000F00AF900BF3037BD4680BD43
:10086000E40000200000014080B500AF114B124AA7
:100870001A60104B4FF4E1325A600E4B00229A601E
:100880000C4B0022DA600B4B00221A61094B0C2240
:100890005A61084B00229A61064B0022DA61054832
:1008A00002F062FD0346002B01D000F0DFF800BF2C
:1008B00080BD00BF240100200044004080B58AB004
:1008C00000AF07F1140300221A605A609A60DA60E0
:1008D0001A6100233B613C4B1B6B3B4A43F0040312
:1008E0001363394B1B6B03F004033B613B6900232B
:1008F000FB60354B1B6B344A43F080031363324B70
:100900001B6B03F08003FB60FB680023BB602E4B76
:100910001B6B2D4A43F0010313632B4B1B6B03F03E
:100920000103BB60BB6800237B60274B1B6B264A1F
:1009300043F002031363244B1B6B03F002037B6041
:100940007B6800221221214801F011FB00221021B6
:100950001F4801F00CFB4FF400537B611D4BBB6142
:100960000023FB6107F114031946194801F066F9E9
:1009700012237B610123BB610023FB6100233B62E7
:1009800007F114031946114801F058F910237B614F
:100990000123BB610023FB6100233B6207F11403C9
:1009A00019460B4801F04AF920237B610023BB6103
:1009B0000023FB6107F114031946054801F03EF9D5
:1009C00000BF2837BD4680BD00380240000002400D
:1009D000000802400000211080B584B000AF7860AC
:1009E0000B4B5B6AFB810A4B1B681B0903F001037D
:1009F000BB60B7F90E30DA0F13445B101BB2BA6854
:100A00001946044803F08CFA00BF1037BD4680BD7C
:100A100000000140D44D000880B586B000AFF860FA
:100A2000B9607A60FB68012B0AD0FB68022B07D003
:100A300003F094F9034609221A604FF0FF330FE0E8
:100A40007B689AB24FF47A73B968074802F0D9FC10
:100A50000346FB75FB7D002B01D17B6800E0002382
:100A600018461837BD4680BD2401002080B500AF70
:100A7000024803F055FA00BF80BD00BFE84D0008F2
:100A800080B582B000AF00237B60104B5B6C0F4AD7
:100A900043F4804353640D4B5B6C03F480437B60F1
:100AA0007B6800233B60094B1B6C084A43F0805372
:100AB0001364064B1B6C03F080533B603B680720BC
:100AC00001F07AF800BF0837BD4680BD003802400B
:100AD00080B58AB000AF786007F1140300221A6075
:100AE0005A609A60DA601A617B681B68194A9342FF
:100AF0002BD100233B61184B5B6C174A43F48053A6
:100B00005364154B5B6C03F480533B613B690023DA
:100B1000FB60114B1B6B104A43F0010313630E4B38
:100B20001B6B03F00103FB60FB68A0237B610223C6
:100B3000BB610023FB6102233B6205237B6207F15B
:100B400014031946054801F079F800BF2837BD465F
:100B500080BD00BF0030014000380240000002406C
:100B600080B58AB000AF786007F1140300221A60E4
:100B70005A609A60DA601A617B681B681D4A93426A
:100B800034D100233B611C4B5B6C1B4A43F00103D7
:100B90005364194B5B6C03F001033B613B69002319
:100BA000FB60154B1B6B144A43F001031363124B9C
:100BB0001B6B03F00103FB60FB684FF440737B6128
:100BC0000223BB610123FB6100233B6201237B62A3
:100BD00007F114031946094801F030F800220021FA
:100BE0001B2000F0F4FF1B2001F00DF800BF283798
:100BF000BD4680BD000001400038024000000240B8
:100C000080B58AB000AF786007F1140300221A6043
:100C10005A609A60DA601A617B681B68194A9342CD
:100C20002BD100233B61184B1B6C174A43F4003354
:100C30001364154B1B6C03F400333B613B690023C9
:100C4000FB60114B1B6B104A43F0010313630E4B07
:100C50001B6B03F00103FB60FB680C237B61022329
:100C6000BB610023FB6103233B6207237B6207F127
:100C700014031946054800F0E1FF00BF2837BD46C0
:100C800080BD00BF00440040003802400000024028
:100C900080B400AF00BFBD4680BC704780B400AFD9
:100CA000FEE780B400AFFEE780B400AFFEE780B49B
:100CB00000AFFEE780B400AF00BFBD4680BC704708
:100CC00080B400AF00BFBD4680BC704780B400AFA9
:100CD00000BFBD4680BC704780B500AF00F060FE2D
:100CE00000BF80BD80B500AF024802F0F1F800BF40
:100CF00080BD00BFE400002080B586B000AFF86082
:100D0000B9607A6000237B610AE0AFF3008001469E
:100D1000BB685A1CBA60CAB21A707B6901337B6126
:100D20007A697B689A42F0DB7B6818461837BD46C3
:100D300080BD000080B584B000AF7860114B1B68A7
:100D4000002B02D10F4B104A1A600E4B1B68FB6040
:100D50000C4B1A687B6813446A46934207D902F029
:100D6000FDFF03460C221A604FF0FF3306E0054BEF
:100D70001A687B681344034A1360FB6818461037EF
:100D8000BD4680BD68010020A001002080B483B072
:100D900000AF78604FF0FF3318460C37BD4680BC7B
:100DA000704780B483B000AF786039603B684FF41F
:100DB00000525A60002318460C37BD4680BC70476D
:100DC00080B483B000AF7860012318460C37BD466D
:100DD00080BC704780B485B000AFF860B9607A60BD
:100DE000002318461437BD4680BC704780B400AF5E
:100DF000034B4FF000629A6000BFBD4680BC704755
:100E000000ED00E080B582B000AF0346FB71F91D34
:100E10004FF47A730122034801F090FD00BF0837B8
:100E2000BD4680BD8C00002080B500AF002210219F
:100E3000074801F09CF800221021064801F097F8BD
:100E400001220221034801F092F80023184680BDD8
:100E5000000802400000024080B485B000AFF86096
:100E6000084611461A4603467B810B463B811346D2
:100E7000FB80224B00221A60204AFB6813601F4A45
:100E80007B8913811D4A3B8953811C4A3B8B93818B
:100E90001A4B0222DA827B8903F007039BB2002BF4
:100EA00003D17B89DB089BB204E07B89DB089BB222
:100EB00001339BB2114A5382104A3B8993820F4AF5
:100EC000FB88D3810D4B00221A82FB88002B02D0B5
:100ED000FB88B42B06D1094A7B899380074A3B895A
:100EE000D38006E0054A3B899380044A7B89D380FE
:100EF00000BF00BF1437BD4680BC70476C010020A6
:100F000080B483B000AF7860034A7B68136000BF91
:100F10000C37BD4680BC70476C01002080B588B09E
:100F200000AF0346FB800B46BB8013467B80834BA0
:100F30009B88FA889A4204D8804BDB88BA889A4208
:100F400003D97F4803F072F8F5E07C4BDB89B3F5F9
:100F5000877F2BD0B3F5877F00F3EA80B42B16D0C0
:100F6000B42B00F3E580002B02D05A2B05D0DFE034
:100F7000FB88FB83BB88BB8322E0704B1A89BB884C
:100F8000D31A9BB2013BFB83FB88BB8318E06B4BFE
:100F90001A89FB88D31A9BB2013BFB83674B5A89A2
:100FA000BB88D31A9BB2013BBB8309E0BB88FB83A0
:100FB000624B5A89FB88D31A9BB2013BBB8300BFAB
:100FC0005E4B1B8A032B00F2B58001A252F823F07E
:100FD0001F100008E10F0008F10F000801100008C1
:100FE000564B1A89FB8BD31A9BB2013BFB8317E04C
:100FF000524B5A89BB8BD31A9BB2013BBB830FE088
:101000004E4B1A89FB8BD31A9BB2013BFB834B4B94
:101010005A89BB8BD31A9BB2013BBB8300E000BF54
:10102000464B1B89FA8B9A4204D8444B5B89BA8B96
:101030009A4203D9424802F0F9FF7CE03F4BDB8A39
:10104000022B39D1FB8BDB089BB21946BB8B3B4A89
:10105000528A02FB03F30B443B61384B1A683B692D
:1010600013441B78FB737B88002B13D1FB8B03F09D
:101070000703802242FA03F35BB2DB435AB297F9CB
:101080000F30134059B22D4B1A683B691344CAB252
:101090001A7050E0FB8B03F00703802242FA03F33F
:1010A0005AB297F90F30134359B2244B1A683B696F
:1010B0001344CAB21A703EE0204BDB8A042B3AD1AB
:1010C000FB8B9B089BB21946BB8B1C4A528A02FBC6
:1010D00003F30B44BB617B8803F003037B80174B56
:1010E0001A68BB6913441B78FB75FB8B03F0030381
:1010F0005B00C02242FA03F35BB2DB435AB297F9BA
:10110000173013405BB2FB757B889A01FB8B03F0B1
:1011100003035B0042FA03F35AB297F91730134303
:1011200059B2064B1A68BB691344CAB21A7002E07E
:1011300000BF00E000BF2037BD4680BD6C0100202D
:10114000284F000880B485B000AF0346FB80002321
:10115000FB811CE00023BB8111E0BA89FB891149A6
:10116000498A01FB03F31344BB600E4B1A68BB684A
:101170001344FA88D2B21A70BB890133BB81094B80
:101180005B8ABA899A42E8D3FB890133FB81054B1C
:101190009B8AFA899A42DDD300BF00BF1437BD464F
:1011A00080BC70476C01002090B585B000AF04464C
:1011B000084611461A462346FB800346BB800B4671
:1011C0007B8013467B704A4B9B88FA889A4204D8EE
:1011D000474BDB88BA889A4211D9464802F026FF6D
:1011E000FB88434A92881946434802F099FEBB881F
:1011F0003F4AD2881946414802F092FE74E097F8BF
:101200002030012B44D10023FB8139E00023BB8136
:1012100029E0FA88B7F90E301A447B78D31A002BEC
:1012200028DBBA88B7F90C301A447B78D31A002B24
:1012300020DBFA89FB8813449AB27B789BB2D31ADD
:1012400098B2BA89BB8813449AB27B789BB2D31AFE
:101250009BB27A881946FFF761FEB7F90C309BB252
:1012600001339BB2BB81B7F90C207B785B00013B5B
:101270009A42CEDBB7F90E309BB201339BB2FB81B1
:10128000B7F90E207B785B00013B9A42BEDB2BE076
:101290000023FB8123E00023BB8115E0FA89FB8852
:1012A00013449BB2013B98B2BA89BB8813449BB2EA
:1012B000013B9BB27A881946FFF730FEB7F90C3034
:1012C0009BB201339BB2BB81B7F90C207B789A4269
:1012D000E4DBB7F90E309BB201339BB2FB81B7F967
:1012E0000E207B789A42D6DB1437BD4690BD00BFF6
:1012F0006C010020504F0008904F0008B44F0008C8
:1013000080B500AF012202210B4800F030FEC8205A
:1013100000F062FB00220221074800F028FEC820EE
:1013200000F05AFB01220221034800F020FEC820F1
:1013300000F052FB00BF80BD0000024080B582B0CB
:1013400000AF0346FB71002210210A4800F00FFE97
:1013500000221021084800F00AFEFB791846FFF72A
:1013600051FD01221021044800F001FE00BF0837A2
:10137000BD4680BD000802400000024080B582B03A
:1013800000AF0346FB71012210210A4800F0EFFD77
:1013900000221021084800F0EAFDFB791846FFF70B
:1013A00031FD01221021044800F0E1FD00BF0837A3
:1013B000BD4680BD000802400000024080B500AF7D
:1013C0000C4802F033FE7120FFF7B8FF05E07120F2
:1013D000FFF7B4FF642000F0FFFA2021064800F078
:1013E000AFFD0346002BF2D0044802F01FFE00BF01
:1013F00080BD00BF5851000800080240705100082D
:1014000080B500AF1220FFF799FF642000F0E4FAE6
:10141000FFF7D4FF00BF80BD80B582B000AF2020B1
:10142000FFF78CFF0023FB8008E0FB882B4AD35C8E
:101430001846FFF7A3FFFB880133FB80FB882B2BAB
:10144000F3D92120FFF77AFF0023FB8008E0FB8817
:10145000234AD35C1846FFF791FFFB880133FB80DA
:10146000FB88292BF3D92220FFF768FF0023FB809C
:1014700008E0FB881B4AD35C1846FFF77FFFFB8818
:101480000133FB80FB88292BF3D92320FFF756FF7C
:101490000023FB8008E0FB88134AD35C1846FFF763
:1014A0006DFFFB880133FB80FB88292BF3D92420B7
:1014B000FFF744FF0023FB8008E0FB880B4AD35C66
:1014C0001846FFF75BFFFB880133FB80FB88292B65
:1014D000F3D900BF00BF0837BD4680BDA851000842
:1014E000D4510008005200082C520008585200083D
:1014F00080B582B000AF2020FFF720FF00237B6083
:1015000009E02F4A7B6813441B781846FFF736FF23
:101510007B6801337B607B682B2BF2D92120FFF79E
:101520000DFF00237B6009E0264A7B6813441B788B
:101530001846FFF723FF7B6801337B607B68292B0C
:10154000F2D92220FFF7FAFE00237B6009E01E4A51
:101550007B6813441B781846FFF710FF7B68013344
:101560007B607B68292BF2D92320FFF7E7FE00235D
:101570007B6009E0154A7B6813441B781846FFF727
:10158000FDFE7B6801337B607B68292BF2D9242028
:10159000FFF7D4FE00237B6009E00D4A7B6813440B
:1015A0001B781846FFF7EAFE7B6801337B607B6897
:1015B000292BF2D900BF00BF0837BD4680BD00BF50
:1015C00084520008B0520008DC520008085300089A
:1015D0003453000880B500AFFFF792FE0120FFF7FB
:1015E000ADFE0320FFF7CAFE0020FFF7C7FE2B2049
:1015F000FFF7C4FE2B20FFF7C1FE0620FFF79EFE7B
:101600001720FFF7BBFE1720FFF7B8FE1720FFF7E4
:10161000B5FE0420FFF792FEFFF7D0FE0020FFF793
:101620008DFEBF20FFF7AAFE0D20FFF7A7FE30209A
:10163000FFF784FE3C20FFF7A1FE6120FFF77EFE4E
:101640000120FFF79BFE9020FFF798FE0120FFF797
:1016500095FE2C20FFF792FE8220FFF76FFE2820D8
:10166000FFF78CFE5020FFF769FE9720FFF786FEFC
:10167000FFF7D2FE00BF80BD80B584B000AF32233B
:10168000FB804FF49673BB801020FFF757FE0023BA
:10169000FB810FE00023BB8105E0FF20FFF76EFE1A
:1016A000BB890133BB81BA89FB889A42F5D3FB8998
:1016B0000133FB81FA89BB889A42EBD31320FFF7F1
:1016C0003DFE00237B810FE000233B8105E0FF20EE
:1016D000FFF754FE3B8901333B813A89FB889A42EC
:1016E000F5D37B8901337B817A89BB889A42EBD31E
:1016F0001220FFF723FE0A2000F06EF9FFF780FEAC
:1017000000BF1037BD4680BD90B587B000AF04461E
:10171000084611461A462346FB800346BB800B460B
:101720007B8013463B803223FB814FF49673BB8151
:10173000FB8803F007039BB2002B07D0FB88DB0874
:101740009BB201339BB2DB009BB200E0FB88FB80C5
:101750007B8803F007039BB2002B07D07B88DB0854
:101760009BB201339BB2DB009BB200E07B887B80A5
:101770005020FFF7E3FDF720FFF700FE642000F0A4
:101780002BF98220FFF7DAFD0820FFF7F7FD502044
:10179000FFF7D4FD4720FFF7F1FDFFF7A9FE9120E9
:1017A000FFF7CCFD9020FFF7C9FDFB881B0A9BB219
:1017B000DBB21846FFF7E2FDFB88DBB21846FFF705
:1017C000DDFD7B881B0A9BB2DBB21846FFF7D6FD16
:1017D0007B88DBB2013BDBB21846FFF7CFFDBB884D
:1017E0001B0A9BB2DBB21846FFF7C8FDBB88DBB211
:1017F0001846FFF7C3FD3B881B0A9BB2DBB21846B5
:10180000FFF7BCFD3B88DBB2013BDBB21846FFF7BC
:10181000B5FD2820FFF7B2FD1020FFF78FFD002354
:10182000FB8225E00023BB8215E0BA88FB8A1344C3
:10183000FA8902FB03F3FA88D20892B21A44BB8AEF
:1018400013441A46BB6A13441B781846FFF796FDEB
:10185000BB8A0133BB82BA8A7988FB88CB1A002BFA
:1018600000DA0733DB109A42DFDBFB8A0133FB82AD
:10187000FA8A3988BB88CB1A9A42D3DB1320FFF748
:101880005DFD00237B8227E000233B8217E0BA88BE
:101890007B8A1344FA8902FB03F3FA88D20892B2D6
:1018A0001A443B8A13441A46BB6A13441B78DB4331
:1018B000DBB21846FFF762FD3B8A01333B823A8A6E
:1018C0007988FB88CB1A002B00DA0733DB109A42A9
:1018D000DDDB7B8A01337B827A8A3988BB88CB1A2D
:1018E0009A42D1DB1220FFF729FD0A2000F074F89C
:1018F000FFF786FD00BF1C37BD4690BD80B500AF29
:101900000E4B1B680D4A43F4007313600B4B1B68AE
:101910000A4A43F480631360084B1B68074A43F488
:1019200080731360032000F047F9002000F008F8EE
:10193000FFF7A6F80023184680BD00BF003C024018
:1019400080B582B000AF7860124B1A68124B1B78DA
:1019500019464FF47A73B3FBF1F3B2FBF3F3184675
:1019600000F05FF90346002B01D001230EE07B68F5
:101970000F2B0AD8002279684FF0FF3000F027F9CA
:10198000064A7B681360002300E0012318460837ED
:10199000BD4680BD0000002008000020040000209B
:1019A00080B400AF054B1B781A46054B1B681344E7
:1019B000034A136000BFBD4680BC7047080000208A
:1019C0008401002080B400AF024B1B681846BD465E
:1019D00080BC70478401002080B584B000AF78607F
:1019E000FFF7F0FFB8607B68FB60FB68B3F1FF3F77
:1019F00005D00A4B1B781A46FB681344FB6000BFF6
:101A0000FFF7E0FF0246BB68D31AFA689A42F7D89C
:101A100000BF00BF1037BD4680BD00BF08000020DA
:101A200080B485B000AF78607B6803F00703FB608B
:101A30000C4BDB68BB60BA684FF6FF031340BB601A
:101A4000FB681A02BB68134343F0BF6343F40033DF
:101A5000BB60044ABB68D36000BF1437BD4680BC7E
:101A6000704700BF00ED00E080B400AF044BDB68BE
:101A70001B0A03F007031846BD4680BC704700BF31
:101A800000ED00E080B483B000AF0346FB7197F92E
:101A90000730002B0BDBFB7903F01F02064997F997
:101AA00007305B09012000FA02F241F8232000BF51
:101AB0000C37BD4680BC704700E100E080B483B0C5
:101AC00000AF03463960FB7197F90730002B0ADB42
:101AD0003B68DAB20C4997F907301201D2B20B44D5
:101AE00083F800230AE03B68DAB20849FB7903F087
:101AF0000F03043B1201D2B20B441A7600BF0C371D
:101B0000BD4680BC704700BF00E100E000ED00E092
:101B100080B489B000AFF860B9607A60FB6803F008
:101B20000703FB61FB69C3F10703042B28BF0423F0
:101B3000BB61FB690433062B02D9FB69033B00E060
:101B400000237B614FF0FF32BB6902FA03F3DA43F3
:101B5000BB681A407B699A404FF0FF317B6901FAFC
:101B600003F3D9437B680B40134318462437BD4623
:101B700080BC704780B582B000AF78607B68013B65
:101B8000B3F1807F01D301230FE00A4A7B68013B58
:101B900053600F214FF0FF30FFF790FF054B0022FD
:101BA0009A60044B07221A60002318460837BD4686
:101BB00080BD00BF10E000E080B582B000AF78606B
:101BC0007868FFF72DFF00BF0837BD4680BD80B5A0
:101BD00086B000AF0346B9607A60FB7300237B6177
:101BE000FFF742FF78617A68B9687869FFF790FF7C
:101BF000024697F90F3011461846FFF75FFF00BF06
:101C00001837BD4680BD80B582B000AF0346FB717A
:101C100097F907301846FFF735FF00BF0837BD4674
:101C200080BD80B582B000AF78607868FFF7A2FF12
:101C3000034618460837BD4680BD000080B489B011
:101C400000AF7860396000237B6100233B61002393
:101C5000BB610023FB6159E10122FB6902FA03F336
:101C60007B613B681B687A6913403B613A697B6919
:101C70009A4240F048813B685B68012B0BD03B687F
:101C80005B68022B07D03B685B68112B03D03B6875
:101C90005B68122B30D17B689B68BB61FB695B0082
:101CA000032202FA03F3DB43BA691340BB613B68CA
:101CB000DA68FB695B0002FA03F3BA691343BB619C
:101CC0007B68BA699A607B685B68BB610122FB69CB
:101CD00002FA03F3DB43BA691340BB613B685B68FC
:101CE0001B0903F00102FB6902FA03F3BA6913430B
:101CF000BB617B68BA695A607B68DB68BB61FB6962
:101D00005B00032202FA03F3DB43BA691340BB61B1
:101D10003B689A68FB695B0002FA03F3BA691343F4
:101D2000BB617B68BA69DA603B685B68022B03D0F1
:101D30003B685B68122B23D1FB69DA087B680832A9
:101D400053F82230BB61FB6903F007039B000F22AD
:101D500002FA03F3DB43BA691340BB613B681A69BB
:101D6000FB6903F007039B0002FA03F3BA6913430C
:101D7000BB61FB69DA087B680832B96943F8221055
:101D80007B681B68BB61FB695B00032202FA03F3FB
:101D9000DB43BA691340BB613B685B6803F0030235
:101DA000FB695B0002FA03F3BA691343BB617B680A
:101DB000BA691A603B685B6803F08053002B00F03F
:101DC000A2800023FB60564B5B6C554A43F4804372
:101DD0005364534B5B6C03F48043FB60FB68514AD4
:101DE000FB699B08023352F82330BB61FB6903F0A7
:101DF00003039B000F2202FA03F3DB43BA6913408B
:101E0000BB617B68484A934219D07B68474A93423A
:101E100013D07B68464A93420DD07B68454A934273
:101E200007D07B68444A934201D1042308E007238A
:101E300006E0032304E0022302E0012300E0002384
:101E4000FA6902F0030292009340BA691343BB613E
:101E50003449FB699B080233BA6941F82320374BA8
:101E60001B68BB613B69DB43BA691340BB613B68DC
:101E70005B6803F48033002B03D0BA693B691343DA
:101E8000BB612E4ABB6913602C4B5B68BB613B692D
:101E9000DB43BA691340BB613B685B6803F4003302
:101EA000002B03D0BA693B691343BB61234ABB696A
:101EB0005360224B9B68BB613B69DB43BA691340AB
:101EC000BB613B685B6803F48013002B03D0BA69E5
:101ED0003B691343BB61194ABB699360174BDB68CD
:101EE000BB613B69DB43BA691340BB613B685B681C
:101EF00003F40013002B03D0BA693B691343BB61A1
:101F00000E4ABB69D360FB690133FB61FB690F2B90
:101F10007FF6A2AE00BF00BF2437BD4680BC70472D
:101F20000038024000380140000002400004024036
:101F300000080240000C024000100240003C01403A
:101F400080B485B000AF78600B467B807B681A69EF
:101F50007B881340002B02D00123FB7301E0002398
:101F6000FB73FB7B18461437BD4680BC704780B4BA
:101F700083B000AF78600B467B8013467B707B7824
:101F8000002B03D07A887B689A6103E07B881A046F
:101F90007B689A6100BF0C37BD4680BC704700006B
:101FA00080B586B000AF78607B68002B01D101233B
:101FB0005BE27B681B6803F00103002B75D0A34B29
:101FC0009B6803F00C03042B0CD0A04B9B6803F020
:101FD0000C03082B12D19D4B5B6803F48003B3F50F
:101FE000800F0BD1994B1B6803F40033002B5BD09F
:101FF0007B685B68002B57D1012336E27B685B6806
:10200000B3F5803F06D1914B1B68904A43F480336F
:1020100013601DE07B685B68B3F5A02F0CD18B4B80
:102020001B688A4A43F480231360884B1B68874AE5
:1020300043F4803313600BE0844B1B68834A23F422
:1020400080331360814B1B68804A23F48023136024
:102050007B685B68002B13D0FFF7B4FC386108E0A5
:10206000FFF7B0FC02463B69D31A642B01D9032366
:10207000FBE1764B1B6803F40033002BF0D014E037
:10208000FFF7A0FC386108E0FFF79CFC02463B69C3
:10209000D31A642B01D90323E7E16C4B1B6803F4CB
:1020A0000033002BF0D100E000BF7B681B6803F019
:1020B0000203002B63D0654B9B6803F00C03002BDD
:1020C0000BD0624B9B6803F00C03082B1CD15F4BB9
:1020D0005B6803F48003002B16D15C4B1B6803F094
:1020E0000203002B05D07B68DB68012B01D00123A4
:1020F000BBE1564B1B6823F0F8027B681B69DB00D1
:10210000524913430B603AE07B68DB68002B20D018
:102110004F4B01221A60FFF755FC386108E0FFF7CA
:1021200051FC02463B69D31A022B01D903239CE1DF
:10213000464B1B6803F00203002BF0D0434B1B6897
:1021400023F0F8027B681B69DB00404913430B60F6
:1021500015E03F4B00221A60FFF734FC386108E0BD
:10216000FFF730FC02463B69D31A022B01D9032347
:102170007BE1364B1B6803F00203002BF0D17B6838
:102180001B6803F00803002B30D07B685B69002BD1
:1021900016D0304B01221A60FFF714FC386108E0BA
:1021A000FFF710FC02463B69D31A022B01D9032327
:1021B0005BE1264B5B6F03F00203002BF0D015E0D0
:1021C000244B00221A60FFF7FDFB386108E0FFF79F
:1021D000F9FB02463B69D31A022B01D9032344E1E0
:1021E0001A4B5B6F03F00203002BF0D17B681B6876
:1021F00003F00403002B00F0A0800023FB75134BB9
:102200001B6C03F08053002B0FD10023BB600F4BDE
:102210001B6C0E4A43F0805313640C4B1B6C03F091
:102220008053BB60BB680123FB750B4B1B6803F439
:102230008073002B21D1084B1B68074A43F480733D
:102240001360FFF7BFFB386111E000BF00380240A8
:1022500000004742800E474200700040FFF7B2FB8B
:1022600002463B69D31A022B01D90323FDE0814BBF
:102270001B6803F48073002BF0D07B689B68012BF4
:1022800006D17D4B1B6F7C4A43F0010313671CE0B2
:102290007B689B68052B0CD1774B1B6F764A43F00C
:1022A00004031367744B1B6F734A43F001031367F6
:1022B0000BE0714B1B6F704A23F0010313676E4BE9
:1022C0001B6F6D4A23F0040313677B689B68002B28
:1022D00015D0FFF777FB38610AE0FFF773FB024682
:1022E0003B69D31A41F28832934201D90323BCE0FF
:1022F000614B1B6F03F00203002BEED014E0FFF7DD
:1023000061FB38610AE0FFF75DFB02463B69D31AC7
:1023100041F28832934201D90323A6E0564B1B6F4A
:1023200003F00203002BEED1FB7D012B05D1524BB4
:102330001B6C514A23F0805313647B689B69002B0C
:1023400000F092804C4B9B6803F00C03082B5CD090
:102350007B689B69022B41D1484B00221A60FFF732
:1023600031FB386108E0FFF72DFB02463B69D31AC9
:10237000022B01D9032378E03F4B1B6803F0007365
:10238000002BF0D17B68DA697B681B6A1A437B6893
:102390005B6A9B011A437B689B6A5B08013B1B04D9
:1023A0001A437B68DB6A1B06334913434B60334B8C
:1023B00001221A60FFF706FB386108E0FFF702FB15
:1023C00002463B69D31A022B01D903234DE02A4B65
:1023D0001B6803F00073002BF0D045E0274B002270
:1023E0001A60FFF7EFFA386108E0FFF7EBFA0246F0
:1023F0003B69D31A022B01D9032336E01E4B1B681D
:1024000003F00073002BF0D12EE07B689B69012B59
:1024100001D1012329E0184B5B68FB60FB6803F4E2
:1024200080027B68DB699A421CD1FB6803F03F02A3
:102430007B681B6A9A4215D1FA6847F6C07313404D
:102440007A68526A93420DD1FB6803F440327B688C
:102450009B6A9A4206D1FB6803F070627B68DB6A74
:102460009A4201D0012300E0002318461837BD46E8
:1024700080BD00BF0070004000380240600047424D
:1024800080B584B000AF786039607B68002B01D1E3
:102490000123CCE0684B1B6803F00F033A689A42B3
:1024A0000CD9654B3A68D2B21A70634B1B6803F0C3
:1024B0000F033A689A4201D00123B8E07B681B6899
:1024C00003F00203002B20D07B681B6803F0040399
:1024D000002B05D0594B9B68584A43F4E053936056
:1024E0007B681B6803F00803002B05D0534B9B68E7
:1024F000524A43F460439360504B9B6823F0F002D0
:102500007B689B684D4913438B607B681B6803F0B5
:102510000103002B44D07B685B68012B07D1474B3C
:102520001B6803F40033002B19D101237FE07B6883
:102530005B68022B03D07B685B68032B07D13F4BA2
:102540001B6803F00073002B09D101236FE03B4BA4
:102550001B6803F00203002B01D1012367E0374B16
:102560009B6823F003027B685B68344913438B60EC
:10257000FFF728FAF8600AE0FFF724FA0246FB6842
:10258000D31A41F28832934201D903234FE02B4BF7
:102590009B6803F00C027B685B689B009A42EBD15E
:1025A000254B1B6803F00F033A689A420CD2224B6A
:1025B0003A68D2B21A70204B1B6803F00F033A68D6
:1025C0009A4201D0012332E07B681B6803F00403C8
:1025D000002B08D0194B9B6823F4E0527B68DB6822
:1025E000164913438B607B681B6803F00803002BBC
:1025F00009D0124B9B6823F460427B681B69DB00A7
:102600000E4913438B6000F021F802460B4B9B6888
:102610001B0903F00F030A49CB5C22FA03F3094AB2
:102620001360094B1B681846FFF78AF90023184608
:102630001037BD4680BD00BF003C0240003802405C
:102640009051000800000020040000202DE9B04354
:1026500084B000AF00237B600023FB6000233B605D
:102660000023BB60674B9B6803F00C03082B0DD065
:10267000082B00F2BD80002B02D0042B03D0B7E062
:10268000614BBB60B7E0614BBB60B4E05D4B5B6826
:1026900003F03F037B605B4B5B6803F48003002B1C
:1026A0004DD0584B5B689B091A464FF0000340F22F
:1026B000FF104FF0000102EA000803EA010940465A
:1026C00049464FF000024FF000034B0143EAD0634C
:1026D000420110461946B0EB080061EB09014FF0CA
:1026E00000024FF000038B0143EA90638201121A4B
:1026F00063EB01034FF000004FF00001D90041EA05
:102700005271D00002460B4612EB080243EB09035C
:102710004FF000004FF00001590241EAD25150023F
:1027200002460B46104619467B681A464FF00003D6
:10273000FDF756FD02460B461346FB604AE0314B5F
:102740005B689B091A464FF0000340F2FF104FF000
:10275000000102EA000403EA0105204629464FF081
:1027600000024FF000034B0143EAD06342011046E0
:102770001946001B61EB05014FF000024FF000030A
:102780008B0143EA90638201121A63EB01034FF05D
:1027900000004FF00001D90041EA5271D00002461A
:1027A0000B46121945EB03034FF000004FF00001F8
:1027B000990241EA9251900202460B461046194690
:1027C0007B681A464FF00003FDF70AFD02460B46F0
:1027D0001346FB600B4B5B681B0C03F003030133D8
:1027E0005B003B60FA683B68B2FBF3F3BB6002E05E
:1027F000054BBB6000BFBB6818461037BD46BDE83F
:10280000B08300BF003802400024F40000127A00B8
:1028100080B400AF024B1B681846BD4680BC7047B1
:102820000000002080B500AFFFF7F2FF0246054B25
:102830009B689B0A03F007030349CB5C22FA03F36E
:10284000184680BD00380240A051000880B500AF96
:10285000FFF7DEFF0246054B9B685B0B03F00703A7
:102860000349CB5C22FA03F3184680BD00380240CE
:10287000A051000880B582B000AF78607B68002B63
:1028800001D1012356E07B6800229A627B6893F8AD
:102890005130DBB2002B06D17B68002283F8502038
:1028A0007868FEF715F97B68022283F851207B686F
:1028B0001B681A687B681B6822F040021A607B68FC
:1028C0005A687B689B681A437B68DB681A437B689D
:1028D0001B691A437B685B691A437B689B6903F435
:1028E00000731A437B68DB691A437B681B6A42EA00
:1028F00003017B689A6A7B681B680A431A607B68DD
:102900009B691B0C03F004017B685A6A7B681B6897
:102910000A435A607B681B68DA697B681B6822F48B
:102920000062DA617B6800225A657B68012283F8C5
:102930005120002318460837BD4680BD80B588B0B9
:1029400000AFF860B9603B601346FB800023FB7763
:10295000FB6893F85030012B01D102231EE1FB6884
:10296000012283F85020FFF72DF8B861FB88FB8225
:10297000FB6893F85130DBB2012B02D00223FB77C6
:1029800003E1BB68002B02D0FB88002B02D101239E
:10299000FB77FAE0FB68032283F85120FB680022F2
:1029A0005A65FB68BA681A63FB68FA889A86FB68FE
:1029B000FA88DA86FB6800229A63FB6800229A870D
:1029C000FB680022DA87FB6800225A64FB68002259
:1029D0001A64FB689B68B3F5004F07D1FB681B685E
:1029E0001A68FB681B6842F480421A60FB681B6827
:1029F0001B6803F04003402B07D0FB681B681A6874
:102A0000FB681B6842F040021A60FB68DB68B3F5A4
:102A1000006F4BD1FB685B68002B02D0FB8A012B57
:102A20003ED1FB681B6B1A88FB681B68DA60FB6889
:102A30001B6B9A1CFB681A63FB68DB8E9BB2013B25
:102A40009AB2FB68DA862BE0FB681B689B6803F090
:102A50000203022B12D1FB681B6B1A88FB681B68F0
:102A6000DA60FB681B6B9A1CFB681A63FB68DB8EE1
:102A70009BB2013B9AB2FB68DA8611E0FEF7A2FF37
:102A80000246BB69D31A3A689A4203D83B68B3F14D
:102A9000FF3F02D13B68002B02D10323FB7774E098
:102AA000FB68DB8E9BB2002BCED14CE0FB685B68F1
:102AB000002B02D0FB8A012B40D1FB681A6BFB680C
:102AC0001B680C3312781A70FB681B6B5A1CFB686E
:102AD0001A63FB68DB8E9BB2013B9AB2FB68DA8615
:102AE0002CE0FB681B689B6803F00203022B13D1E8
:102AF000FB681A6BFB681B680C3312781A70FB6852
:102B00001B6B5A1CFB681A63FB68DB8E9BB2013B94
:102B10009AB2FB68DA8611E0FEF754FF0246BB6901
:102B2000D31A3A689A4203D83B68B3F1FF3F02D107
:102B30003B68002B02D10323FB7726E0FB68DB8E8A
:102B40009BB2002BCDD1BA693968F86800F094F8CF
:102B50000346002B02D0FB6820225A65FB689B6865
:102B6000002B0AD100233B61FB681B68DB683B61DB
:102B7000FB681B689B683B613B69FB685B6D002BD6
:102B800002D00123FB7700E000BFFB68012283F83D
:102B90005120FB68002283F85020FB7F1846203725
:102BA000BD4680BD80B584B000AFF860B9603B60C1
:102BB0001346FB714CE03B68B3F1FF3F48D0FEF792
:102BC00001FF0246BB69D31A3A689A4202D93B68B0
:102BD000002B3DD1FB681B685A68FB681B6822F01C
:102BE000E0025A60FB685B68B3F5827F11D1FB6835
:102BF0009B68B3F5004F04D0FB689B68B3F5806F0A
:102C000007D1FB681B681A68FB681B6822F040024A
:102C10001A60FB689B6AB3F5005F0FD1FB681B6805
:102C20001A68FB681B6822F400521A60FB681B6874
:102C30001A68FB681B6842F400521A60FB680122A4
:102C400083F85120FB68002283F8502003230FE013
:102C5000FB681B689A68BB681340BA689A420CBF4D
:102C600001230023DBB21A46FB799A42A3D1002349
:102C700018461037BD4680BD80B588B002AFF860F9
:102C8000B9607A601B4B1B681B4AA2FB03235B0DD8
:102C90004FF47A7202FB03F37B61FB685B68B3F568
:102CA000827F12D17B680093BB6800228021F86884
:102CB000FFF778FF0346002B16D0FB685B6D43F0EF
:102CC0002002FB685A6503230FE07B69002B0AD0C2
:102CD0007B69013B7B61FB681B689B6803F0800399
:102CE000802BF2D000E000BF002318461837BD4605
:102CF00080BD00BF00000020819F5E1680B586B0B9
:102D000000AF786039607B68002B01D1012383E03C
:102D10007B6893F83D30DBB2002B06D17B68002244
:102D200083F83C207868FDF71BFF7B68022283F85C
:102D30003D207B681B689B687A68126823F4804397
:102D400023F0070393607B681A687B680433194695
:102D5000104600F0E9F97B681B689B687B617B6823
:102D60001B689B693B617B681B681B6AFB603B6857
:102D70001B687A6913437B613B6923F4407323F03A
:102D800003033B613B689A683B689B691B021343E2
:102D90003A6913433B613B6923F4406323F00C031E
:102DA0003B613B6923F4704323F0F0033B613B68D4
:102DB000DA683B68DB691B0213433A6913433B61E2
:102DC0003B681B691A013B681B6A1B0313433A6982
:102DD00013433B61FB6823F02203FB60FB6823F095
:102DE0008803FB603B685A683B685B691B011343BF
:102DF000FA681343FB607B681B687A699A607B689A
:102E00001B683A699A617B681B68FA681A627B687A
:102E1000012283F83D20002318461837BD4680BDA7
:102E200080B582B000AF786039603B68002B03D07A
:102E30003B68042B10D01FE07B681B680122002137
:102E4000184600F0EFF97B681B68DA687B681B683E
:102E500042F00202DA602EE07B681B680122042146
:102E6000184600F0DFF97B681B68DA687B681B682E
:102E700042F00402DA601EE07B681B680122002138
:102E8000184600F0CFF97B681B6801220421184620
:102E900000F0C8F97B681B68DA687B681B6842F041
:102EA0000202DA607B681B68DA687B681B6842F0A4
:102EB0000402DA6000BF7B681B681A687B681B68C5
:102EC00042F001021A60002318460837BD4680BD53
:102ED00080B582B000AF78607B681B681B6903F027
:102EE0000203022B22D17B681B68DB6803F002031C
:102EF000022B1BD17B681B686FF002021A617B6892
:102F000001221A777B681B689B6903F00303002B7F
:102F100003D07868FDF760FD05E0786800F0E9F817
:102F2000786800F0EFF87B6800221A777B681B68EE
:102F30001B6903F00403042B22D17B681B68DB6848
:102F400003F00403042B1BD17B681B686FF00402A1
:102F50001A617B6802221A777B681B689B6903F4FD
:102F60004073002B03D07868FDF736FD05E07868E4
:102F700000F0BFF8786800F0C5F87B6800221A7787
:102F80007B681B681B6903F00803082B22D17B6850
:102F90001B68DB6803F00803082B1BD17B681B68E8
:102FA0006FF008021A617B6804221A777B681B683D
:102FB000DB6903F00303002B03D07868FDF70CFDF9
:102FC00005E0786800F095F8786800F09BF87B6879
:102FD00000221A777B681B681B6903F01003102B13
:102FE00022D17B681B68DB6803F01003102B1BD118
:102FF0007B681B686FF010021A617B6808221A77E1
:103000007B681B68DB6903F44073002B03D078688E
:10301000FDF7E2FC05E0786800F06BF8786800F0F6
:1030200071F87B6800221A777B681B681B6903F0C4
:103030000103012B0ED17B681B68DB6803F00103E1
:10304000012B07D17B681B686FF001021A61786859
:1030500000F046F87B681B681B6903F08003802B37
:103060000ED17B681B68DB6803F08003802B07D1DF
:103070007B681B686FF080021A61786800F06BF95A
:103080007B681B681B6903F04003402B0ED17B68F3
:103090001B68DB6803F04003402B07D17B681B688B
:1030A0006FF040021A61786800F035F87B681B68A1
:1030B0001B6903F02003202B0ED17B681B68DB68A3
:1030C00003F02003202B07D17B681B686FF02002E0
:1030D0001A61786800F036F900BF0837BD4680BD38
:1030E00080B483B000AF786000BF0C37BD4680BCB1
:1030F000704780B483B000AF786000BF0C37BD4626
:1031000080BC704780B483B000AF786000BF0C37DC
:10311000BD4680BC704780B483B000AF786000BF0C
:103120000C37BD4680BC704780B485B000AF786076
:1031300039607B681B68FB607B68334A93420FD021
:103140007B68B3F1804F0BD07B68304A934207D045
:103150007B682F4A934203D07B682E4A934208D162
:10316000FB6823F07003FB603B685B68FA681343FD
:10317000FB607B68244A93421BD07B68B3F1804F8D
:1031800017D07B68214A934213D07B68204A934230
:103190000FD07B681F4A93420BD07B681E4A934234
:1031A00007D07B681D4A934203D07B681C4A934238
:1031B00008D1FB6823F44073FB603B68DB68FA6866
:1031C0001343FB60FB6823F080023B685B69134399
:1031D000FB607B68FA681A603B689A687B68DA6211
:1031E0003B681A687B689A627B68074A934203D1FE
:1031F0003B681A697B681A637B6801225A6100BFC9
:103200001437BD4680BC70470000014000040040F8
:1032100000080040000C0040004001400044014014
:103220000048014080B487B000AFF860B9607A60B0
:10323000BB6803F01F03012202FA03F37B61FB6802
:103240001A6A7B69DB431A40FB681A62FB681A6AD8
:10325000BB6803F01F03796801FA03F31A43FB68A4
:103260001A6200BF1C37BD4680BC704780B485B071
:1032700000AF786039607B6893F83C30012B01D156
:10328000022350E07B68012283F83C207B68022205
:1032900083F83D207B681B685B68FB607B681B686C
:1032A0009B68BB60FB6823F07003FB603B681B6896
:1032B000FA681343FB607B681B68FA685A607B6896
:1032C0001B681B4A934218D07B681B68B3F1804F80
:1032D00013D07B681B68174A93420ED07B681B682B
:1032E000154A934209D07B681B68144A934204D064
:1032F0007B681B68124A93420CD1BB6823F08003A1
:10330000BB603B685B68BA681343BB607B681B6843
:10331000BA689A607B68012283F83D207B680022AE
:1033200083F83C20002318461437BD4680BC704704
:10333000000001400004004000080040000C004074
:103340000040014080B483B000AF786000BF0C370C
:10335000BD4680BC704780B483B000AF786000BFCA
:103360000C37BD4680BC704780B582B000AF786036
:103370007B68002B01D101233FE07B6893F8393053
:10338000DBB2002B06D17B68002283F838207868F6
:10339000FDF736FC7B68242283F839207B681B68A4
:1033A000DA687B681B6822F40052DA60786800F003
:1033B0000BF97B681B681A697B681B6822F49042D2
:1033C0001A617B681B685A697B681B6822F02A02B5
:1033D0005A617B681B68DA687B681B6842F400529C
:1033E000DA607B680022DA637B68202283F8392068
:1033F0007B68202283F83A20002318460837BD4610
:1034000080BD80B588B002AFF860B9603B601346FC
:10341000FB8000237B61FB6893F83930DBB2202B03
:1034200040F08380BB68002B02D0FB88002B01D1C9
:1034300001237BE0FB6893F83830012B01D1022394
:1034400074E0FB68012283F83820FB680022DA630D
:10345000FB68212283F83920FEF7B4FA7861FB6813
:10346000FA889A84FB68FA88DA84FB68002283F879
:10347000382042E0FB68DB8C9BB2013B9AB2FB68D0
:10348000DA84FB689B68B3F5805F22D13B680093C8
:103490007B6900228021F86800F04CF80346002B7D
:1034A00001D0032342E0BB683B613B691B881A469D
:1034B000FB681B68C2F308025A60FB681B69002B9B
:1034C00003D1BB680233BB6017E0BB680133BB604C
:1034D00013E03B6800937B6900228021F86800F0CC
:1034E00029F80346002B01D003231FE0BB685A1CB8
:1034F000BA601A78FB681B685A60FB68DB8C9BB269
:10350000002BB7D13B6800937B6900224021F8680B
:1035100000F010F80346002B01D0032306E0FB68FF
:10352000202283F83920002300E0022318461837B0
:10353000BD4680BD80B584B000AFF860B9603B6027
:103540001346FB712CE0BB69B3F1FF3F28D0BB6988
:10355000002B07D0FEF736FA02463B68D31ABA6949
:103560009A421DD2FB681B68DA68FB681B6822F46C
:10357000D072DA60FB681B685A69FB681B6822F02E
:1035800001025A61FB68202283F83920FB6820225F
:1035900083F83A20FB68002283F8382003230FE0E9
:1035A000FB681B681A68BB681340BA689A420CBF74
:1035B00001230023DBB21A46FB799A42C3D00023D1
:1035C00018461037BD4680BD2DE9F04FBDB000AFA5
:1035D000C7F8E400D7F8E4301B681B6923F44050B7
:1035E000D7F8E430D968D7F8E4301A6840EA010324
:1035F0001361D7F8E4309A68D7F8E4301B691A43AE
:10360000D7F8E4305B691A43D7F8E430DB69134339
:10361000C7F8EC30D7F8E4301B68DB6823F41641B8
:1036200021F00C01D7F8E4301A68D7F8EC300B43DE
:10363000D360D7F8E4301B685B6923F44070D7F897
:10364000E4309969D7F8E4301A6840EA010353611D
:10365000D7F8E430DB69B3F5004F40F0A681D7F826
:10366000E4301A686A4B9A4206D0D7F8E4301A68F8
:10367000684B9A4240F0D280FFF7E8F8C7F8E800BC
:10368000D7F8E8301C464FF0000522462B4691182B
:10369000C7F888105B41C7F88C30D7E9222312198C
:1036A00045EB03034FF000004FF00001D90041EA61
:1036B0005271D00002460B461119C7F8D8106B4161
:1036C000C7F8DC30D7F8E4305B681A464FF00003E7
:1036D0009118C7F880105B41C7F88430D7E92023E0
:1036E000D7E93601FCF77CFD02460B464A4BA3FBAB
:1036F00002235B091E01D7F8E8301C464FF0000595
:1037000022462B469118B9675B41FB67D7E91E2318
:10371000121945EB03034FF000004FF00001D900F0
:1037200041EA5271D00002460B461119C7F8D01079
:103730006B41C7F8D430D7F8E4305B681A464FF0D5
:103740000003911839675B417B67D7E91C23D7E9F0
:103750003401FCF745FD02460B462F4BA3FB021339
:103760005B09642101FB03F3D31ADB0032332A4ADD
:10377000A2FB03235B095B0003F4F8731E44D7F834
:10378000E83018464FF0000102460B469418BC661C
:103790005B41FB66D7E91A23121841EB03034FF094
:1037A00000044FF00005DD0045EA5275D4002246C2
:1037B0002B461418C7F8C8404B41C7F8CC30D7F88F
:1037C000E4305B681A464FF00003911839665B419C
:1037D0007B66D7E91823D7E93201FCF701FD0246E1
:1037E0000B460D4BA3FB02135B09642101FB03F3A2
:1037F000D31ADB003233084AA2FB03235B0903F030
:103800000702D7F8E4301B6832449A6074E200BFC4
:1038100000100140001401401F85EB51FFF702F832
:10382000C7F8E800D7F8E8301C464FF000052246FC
:103830002B469118B9655B41FB65D7E91623121930
:1038400045EB03034FF000004FF00001D90041EABF
:103850005271D00002460B461119C7F8C0106B41D7
:10386000C7F8C430D7F8E4305B681A464FF000035D
:10387000911839655B417B65D7E91423D7E930019D
:10388000FCF7AEFC02460B46B34BA3FB02235B09DD
:103890001E01D7F8E8301C464FF0000522462B46A3
:1038A0009118B9645B41FB64D7E91223121945EB07
:1038B00003034FF000004FF00001D90041EA5271BC
:1038C000D00002460B461119C7F8B8106B41C7F873
:1038D000BC30D7F8E4305B681A464FF0000391180B
:1038E00039645B417B64D7E91023D7E92E01FCF7EB
:1038F00077FC02460B46984BA3FB02135B0964213D
:1039000001FB03F3D31ADB003233934AA2FB0323F8
:103910005B095B0003F4F8731E44D7F8E8301846DF
:103920004FF0000102460B469418BC635B41FB63F9
:10393000D7E90E23121841EB03034FF000044FF0B8
:103940000005DD0045EA5275D40022462B461418C6
:10395000C7F8B0404B41C7F8B430D7F8E4305B68E3
:103960001A464FF00003911839635B417B63D7E936
:103970000C23D7E92C01FCF733FC02460B46764BAF
:10398000A3FB02135B09642101FB03F3D31ADB00E1
:103990003233714AA2FB03235B0903F00702D7F815
:1039A000E4301B6832449A60A6E1D7F8E4301A6824
:1039B0006A4B9A4206D0D7F8E4301A68684B9A42AC
:1039C00040F0D080FEF742FFC7F8E800D7F8E830B3
:1039D0001C464FF0000522462B469118B9625B4108
:1039E000FB62D7E90A23121945EB03034FF00000ED
:1039F0004FF00001D90041EA5271D00002460B4657
:103A000012EB040A43EB050BD7F8E4305B68184669
:103A10004FF000014FF000024FF000038B0043EA2B
:103A20009073820050465946FCF7DAFB02460B467B
:103A3000494BA3FB02235B091E01D7F8E830184667
:103A40004FF0000102460B4694183C625B417B62DA
:103A5000D7E90823121841EB03034FF000044FF09D
:103A60000005DD0045EA5275D40022462B461418A5
:103A7000C7F8A8404B41C7F8AC30D7F8E4305B68D2
:103A800018464FF000014FF000024FF000038B008A
:103A900043EA90738200D7E92A01FCF7A1FB0246B2
:103AA0000B462D4BA3FB02135B09642101FB03F3BF
:103AB000D31A1B013233284AA2FB03235B0903F00C
:103AC000F0031E44D7F8E83018464FF000010246D4
:103AD0000B469418BC615B41FB61D7E906231218C1
:103AE00041EB03034FF000044FF00005DD0045EA11
:103AF0005275D40022462B461418C7F8A0404B41FB
:103B0000C7F8A430D7F8E4305B6818464FF00001DE
:103B10004FF000024FF000038B0043EA90738200E5
:103B2000D7E92801FCF75CFB02460B460A4BA3FBD6
:103B300002135B09642101FB03F3D31A1B01323327
:103B4000054AA2FB03235B0903F00F02D7F8E43018
:103B50001B6832449A60CFE01F85EB510010014092
:103B600000140140FEF75EFEC7F8E800D7F8E83021
:103B70001C464FF0000522462B46911839615B41E7
:103B80007B61D7E90423121945EB03034FF00000D2
:103B90004FF00001D90041EA5271D00002460B46B5
:103BA00012EB040843EB0509D7F8E4305B681846CC
:103BB0004FF000014FF000024FF000038B0043EA8A
:103BC0009073820040464946FCF70AFB02460B46CA
:103BD0004C4BA3FB02235B091E01D7F8E8301846C3
:103BE0004FF0000102460B469418BC605B41FB603D
:103BF000D7E90223121841EB03034FF000044FF002
:103C00000005DD0045EA5275D40022462B46141803
:103C1000C7F898404B41C7F89C30D7F8E4305B6850
:103C200018464FF000014FF000024FF000038B00E8
:103C300043EA90738200D7E92601FCF7D1FA0246E5
:103C40000B46304BA3FB02135B09642101FB03F31A
:103C5000D31A1B0132332B4AA2FB03235B0903F067
:103C6000F0031E44D7F8E83018464FF00001024632
:103C70000B4694183C605B417B60D7E90023121827
:103C800041EB03034FF000044FF00005DD0045EA6F
:103C90005275D40022462B461418C7F890404B4169
:103CA000C7F89430D7F8E4305B6818464FF000014D
:103CB0004FF000024FF000038B0043EA9073820044
:103CC000D7E92401FCF78CFA02460B460D4BA3FB07
:103CD00002135B09642101FB03F3D31A1B01323386
:103CE000084AA2FB03235B0903F00F02D7F8E43074
:103CF0001B6832449A60FFE700BFF437BD46BDE859
:103D0000F08F00BF1F85EB51DFF834D0002103E0B6
:103D10000C4B5B58435004310B480C4B42189A42F1
:103D2000F6D30B4A02E0002342F8043B094B9A42C7
:103D3000F9D3FDF75BF800F017F8FCF721FC7047AA
:103D400000800120085400080000002070000020BE
:103D500070000020A0010020FEE70000014B186861
:103D6000704700BF0C00002070B50D4D0D4C641B5A
:103D7000A4100026A64209D10B4D0C4C00F0F0FF18
:103D8000641BA4100026A64205D170BD55F8043B63
:103D900098470136EEE755F8043B98470136F2E7BD
:103DA000005400080054000800540008045400089F
:103DB000024B0146186800F059B800BF0C00002003
:103DC00002440346934200D1704703F8011BF9E710
:103DD00038B50546002945D051F8043C0C1F002B8E
:103DE000B8BFE41800F018FC1F4A1368104633B936
:103DF000636014602846BDE8384000F013BCA3425D
:103E00000BD921686218934204BF1A685B6863602B
:103E100004BF521822600460ECE71A465B680BB1DD
:103E2000A342FAD911685018A0420BD1206801446E
:103E3000501883421160DDD118685B6853600144FB
:103E40001160D7E702D90C232B60D3E72068211833
:103E50008B4204BF19685B68636004BF0918216066
:103E60005460C7E738BD00BF88010020F8B5CD1CFD
:103E700025F0030508350C2D38BF0C25002D06460E
:103E800001DBA94203D90C2333600020F8BD00F008
:103E9000C3FB21490A6814469CB9204F3B6823B9EB
:103EA0002146304600F0CAF838602946304600F016
:103EB000C5F8431C23D10C233360304600F0B2FB1D
:103EC000E3E723685B1B17D40B2B03D923601C4447
:103ED000256004E06368A2420CBF0B60536030466B
:103EE00000F0A0FB04F10B00231D20F00700C21A14
:103EF000CCD01B1AA350C9E722466468CCE7C41C87
:103F000024F00304A042E3D0211A304600F096F8D2
:103F10000130DDD1CFE700BF880100208C010020F7
:103F20000FB40A4B13B51C6824B1A36913B920461A
:103F300000F06EFA05AB049AA1680193204600F0E8
:103F40009FFB02B0BDE8104004B070470C00002099
:103F500070B50E46054618B183690BB900F058FAE2
:103F6000AB69AC6813B9284600F052FA2C4B9C425E
:103F700020D16C68636EDB0705D4A389980502D451
:103F8000A06D00F0E3FAA38919071DD52369DBB101
:103F9000013EA36816F8011F013BA36039BB002B4B
:103FA00038DA22460A21284600F058F8013011D0AC
:103FB0000A2511E01B4B9C4201D1AC68DAE71A4B91
:103FC0009C4208BFEC68D5E72146284600F098F8E7
:103FD0000028DDD04FF0FF35636EDA0705D4A389E2
:103FE0009B0502D4A06D00F0B2FA284670BD002BEC
:103FF00004DAA2699A4206DC0A2904D023685A1C12
:1040000022601970C5E72246284600F027F80130E3
:10401000BFD1DFE723680A255A1C22601D70DBE749
:1040200084530008A453000864530008024B01465F
:104030001868FFF78DBF00BF0C00002038B5064D93
:104040000023044608462B60FCF774FE431C02D193
:104050002B6803B1236038BD9C010020F8B50E46E3
:104060001446054618B183690BB900F0D1F9214B0C
:104070009C422BD16C68A369A360A3891A072FD532
:1040800023696BB323692068C01A6369F6B283425F
:10409000374604DC2146284600F026F930BBA368E9
:1040A000013BA36023685A1C22601E7063690130C3
:1040B000834204D0A389DB0706D50A2E04D121460A
:1040C000284600F011F988B93846F8BD0A4B9C42E1
:1040D00001D1AC68CFE7094B9C4208BFEC68CAE746
:1040E0002146284600F00CF80028CBD04FF0FF37CF
:1040F000EAE700BF84530008A45300086453000893
:10410000324B70B51D6806460C4625B1AB6913B934
:10411000284600F07DF92E4B9C420FD16C68A38994
:10412000B4F90C2019072CD4DD0611D4092333600F
:1041300042F04003A3814FF0FF303EE0254B9C420C
:1041400001D1AC68EBE7244B9C4208BFEC68E6E782
:10415000580712D5616B41B104F14403994202D072
:104160003046FFF735FE00236363A38923F0240361
:10417000A3810023636023692360A38943F00803BC
:10418000A38123694BB9A38903F42073B3F5007F9E
:1041900003D02146304600F0FFF9A089B4F90C2085
:1041A00010F001030AD00023A36063695B42A3619E
:1041B000236943B910F08000BAD170BD810758BFA0
:1041C0006369A360F4E70020F7E700BF0C0000205C
:1041D00084530008A4530008645300088A892DE919
:1041E000F041054610070C4658D44B68002B05DCFF
:1041F0000B6C002B02DC0020BDE8F081E66A002E8B
:10420000F9D0002312F480522F682B6032D0606DF9
:10421000A3895A0705D56368C01A636B0BB1236C79
:10422000C01A00230246E66A216A2846B047431CAA
:10423000A38906D129681D292CD82A4ACA40D60745
:1042400028D500226260D9042269226004D5421C6C
:1042500001D12B6803B96065616B2F600029CAD05A
:1042600004F14403994202D02846FFF7B1FD002033
:104270006063C1E7216A01232846B047411CC7D1CA
:104280002B68002BC4D01D2B01D0162B01D12F6021
:10429000B1E7A38943F04003A381ADE70F69002F85
:1042A000A9D093070E6808BF4B690F6018BF0023A1
:1042B000A6EB07088B60B8F1000F9CDD216AA66AA7
:1042C00043463A462846B047002806DCA38943F017
:1042D0004003A3814FF0FF308EE70744A8EB0008AE
:1042E000E9E700BF0100402038B50B6905460C46E0
:1042F00013B90025284638BD18B183690BB900F001
:1043000087F8144B9C421BD16C68B4F90C30002B1D
:10431000EFD0626ED00704D4990502D4A06D00F0EE
:1043200015F928462146FFF759FF636EDA0705465F
:10433000E0D4A3899B05DDD4A06D00F008F9D9E78E
:10434000054B9C4201D1AC68DFE7044B9C4208BF9F
:10435000EC68DAE784530008A453000864530008AB
:10436000002310B50446C0E90033C0E9043383607C
:1043700081814366C2818361194608225C30FFF760
:104380001FFD054B6362054BA362054BE362054BC2
:104390002462236310BD00BF094C00082B4C0008A9
:1043A000634C0008874C0008014900F0AFB800BF1B
:1043B000E942000870B54A1E682555430E4605F1CE
:1043C0007401FFF753FD044640B10021C0E9001617
:1043D0000C30A06005F16802FFF7F2FC204670BDCA
:1043E000014800F0B3B800BF98010020014800F078
:1043F000AEB800BF98010020014800F0A7B800BF88
:1044000093010020014800F0A2B800BF93010020F2
:1044100010B50446FFF7F0FFA3691BB1BDE81040DB
:10442000FFF7F0BFC4E912332365134B134A1B682F
:10443000A262A34204BF0123A361204600F020F83A
:104440006060204600F01CF8A060204600F018F8DC
:104450000022E06004216068FFF782FFA06801226B
:104460000921FFF77DFFE06802221221FFF778FFA4
:104470000123A361D2E700BF60530008A9430008ED
:10448000F8B50746FFF7ACFF1E4B1E68B36913B9BA
:104490003046FFF7BDFF4836D6E90134013B03D56E
:1044A00033680BB33668F7E7B4F90C50D5B9164B3F
:1044B000E36004F15800656600F047F8FFF796FFE7
:1044C000C4E90155C4E904552560A56108222946BF
:1044D00004F15C00FFF774FCC4E90D55C4E9125502
:1044E0002046F8BD6834D9E704213846FFF762FF5B
:1044F000044630600028D5D1FFF778FF0C233B60DD
:10450000EEE700BF605300080100FFFF2DE9F8430C
:104510000646884600F148040027D4E90195B9F120
:10452000010905D52468002CF7D13846BDE8F88389
:10453000AB89012B07D9B5F90E30013303D02946D9
:104540003046C04707436835E9E770477047704712
:1045500070B50E46B1F90E10002996B014461D46EE
:1045600007DA00232B60B3891A0610D44FF4806356
:104570000EE06A4600F0AEFB0028F2DB019A02F47E
:104580007042A2F500535A425A412A60EEE7402396
:104590000020236016B070BD8B8973B59D07064659
:1045A0000C4607D504F147032360236101236361AF
:1045B00002B070BD01AB6A46FFF7CAFF009905461D
:1045C0003046FFF753FC48B9B4F90C309A05EFD4E4
:1045D00023F0030343F00203A381E3E70D4BB3622F
:1045E000A389206043F08003A381009B6361019B4A
:1045F00020615BB1B4F90E10304600F07DFB28B1AC
:10460000A38923F0030343F00103A381A089054399
:10461000A581CDE7A94300080148FFF797BF00BF78
:10462000940100200148FFF792BF00BF94010020D1
:104630009368013B002B10B4936007DA9469A3429E
:1046400001DB0A2902D110BCFFF708BD1368581C12
:1046500010601970084610BC7047F8B506460F4642
:104660001446D518AC4201D1002007E014F8011B14
:104670003A463046FFF7DCFF431CF3D1F8BD00009B
:104680002DE9F04F0D469DB014469846064618B1E8
:1046900083690BB9FFF7BCFE894B9D421BD175683E
:1046A0006B6ED90705D4AB899A0502D4A86DFFF7C4
:1046B0004DFFAB891B0701D52B69EBB92946304665
:1046C000FFF71EFDC0B16B6EDC070ED54FF0FF305B
:1046D0001DB0BDE8F08F7B4B9D4201D1B568DFE78F
:1046E000794B9D4208BFF568DAE7AB899805EDD4B0
:1046F000A86DFFF72CFFE9E70023099320238DF82D
:104700002930CDF80C803023DFF8C0818DF82A30B5
:104710004FF0010923469A4613F8012B0AB1252AC6
:10472000F9D1BAEB040B0BD05B4622462946304642
:10473000FFF793FF013000F0AA80099A5A440992CA
:104740009AF80030002B00F0A28000234FF0FF32D7
:10475000CDE905230AF1010A049307938DF853303C
:104760001A935446052214F8011B5848FBF7B8FE6B
:10477000049AD8B9D10644BF20238DF853301307CB
:1047800044BF2B238DF853309AF800302A2B15D0D4
:10479000079A544600204FF00A0C214611F8013BBD
:1047A000303B092B4ED9B0B1079214E0A0EB0803BF
:1047B00009FA03F313430493A246D2E7039B191D9E
:1047C0001B680391002BBBBF5B4242F002020793C0
:1047D0000793B8BF049223782E2B0CD163782A2B31
:1047E00035D1039B1A1D1B680392002BB8BF4FF0F5
:1047F000FF3302340593DFF8E4A02178032250460A
:10480000FBF76EFE40B14023A0EB0A0003FA00F074
:10481000049B03430134049314F8011B2C488DF8C6
:1048200028100622FBF75CFE00283FD0294B1BBB5B
:10483000039B073323F0070308330393099B3B448F
:10484000099367E70CFB02320C460120A5E7002321
:104850000134059319464FF00A0C204610F8012B3D
:10486000303A092A03D9002BC5D00591C3E70CFBC8
:10487000012104460123F0E703AB00932A46164BBF
:1048800004A93046AFF300800746781CD6D16B6E82
:10489000D90705D4AB899A0502D4A86DFFF757FE56
:1048A000AB895B063FF512AF099811E703AB0093A4
:1048B0002A46094B04A9304600F080F8E4E700BF1F
:1048C00084530008A453000864530008C45300082C
:1048D000CE530008000000005B460008CA530008E1
:1048E0002DE9F047164699468A680B69DDF8208065
:1048F0009342B8BF1346336091F8432007460C46F5
:104900000AB1013333602368990642BF336802332A
:104910003360256815F0060506D104F1190AE3682D
:1049200032689B1AAB4226DC94F84320131E22689F
:1049300018BF012392062BD404F14302494638469E
:10494000C04701301ED02368E568326803F00603D3
:10495000042B08BFAD1AA36822690CBF25EAE575D0
:1049600000259342C4BF9B1AED1800261A34B542A5
:104970001AD1002008E00123524649463846C04774
:10498000013003D14FF0FF30BDE8F0870135C6E7B5
:10499000E1185A1C302081F84300224494F8451055
:1049A00082F843100233C7E70123224649463846BE
:1049B000C0470130E6D00136D9E700002DE9FF47B6
:1049C0000C469146277E0C99782F80469A4604F132
:1049D000430207D8622F0AD8002F00F0D880582F42
:1049E00000F0A38004F1420684F842703AE0A7F197
:1049F0006303152BF6D801A050F823F0554A0008A0
:104A0000694A0008E5490008E5490008E549000849
:104A1000E5490008694A0008E5490008E549000839
:104A2000E5490008E5490008754B0008994A000867
:104A3000574B0008E5490008E5490008974B000876
:104A4000E5490008994A0008E5490008E5490008D9
:104A50005F4B00080B681A1D1B680A6004F14206D0
:104A600084F842300123A3E0256808682E0600F18F
:104A700004030AD505680B60002D03DA2D236D426F
:104A800084F843305E480A2319E015F0400F0568AA
:104A90000B6018BF2DB2EFE70B682568181D086082
:104AA000280601D51D6802E06906FBD51D8854481B
:104AB0006F2F0CBF08230A23002184F84310666877
:104AC000A660002EA2BF216821F0040121600DB96B
:104AD000002E4DD01646B5FBF3F103FB1157C75D11
:104AE00006F8017D2F46BB420D46F4D9082B0BD1A9
:104AF0002368DF0708D5236961689942DEBF302348
:104B000006F8013C06F1FF36921B2261CDF800A0A9
:104B10004B4603AA21464046FFF7E2FE01304CD146
:104B20004FF0FF3004B0BDE8F087354884F8457099
:104B300023680E681F0656F8045B0E6014D5D9076B
:104B400044BF43F0200323601DB9236823F02003F2
:104B500023601023B0E7236843F020032360782309
:104B6000284884F84530E3E75E0648BFADB2E6E783
:104B70001646BBE70B68266860691D1D0D6035068B
:104B80001B6801D5186002E07106FBD51880002370
:104B900023611646BAE70B681A1D0A601E68626830
:104BA00000213046FBF79CFC08B1801B6060636805
:104BB0002361002384F84330A8E72369324649463D
:104BC0004046D0470130ABD023689B0713D4E06840
:104BD000039B9842B8BF1846A4E7012332464946D2
:104BE0004046D04701309BD00135E36803995B1AFA
:104BF000AB42F2DCEBE7002504F11906F5E700BF54
:104C0000D5530008E653000810B50C46B1F90E1054
:104C100000F094F80028ABBF636DA3891B1823F440
:104C20008053ACBF6365A38110BD2DE9F0411F46E1
:104C30008B89DB0505460C46164605D5B1F90E10E5
:104C40000223002200F068F8A389B4F90E1023F4BF
:104C50008053A38132463B462846BDE8F04100F030
:104C600017B810B50C46B1F90E1000F055F8431CFA
:104C7000A38915BF606523F4805343F48053A38157
:104C800018BFA38110BDB1F90E1000F013B80000D9
:104C900038B5074D04460846114600222A601A46D8
:104CA000FBF7BAFE431C02D12B6803B1236038BD69
:104CB0009C01002038B5064D0023044608462B60B1
:104CC000FCF764F8431C02D12B6803B1236038BDA4
:104CD0009C01002038B5074D0023044608461146C4
:104CE0002B60FCF75EF8431C02D12B6803B12360F4
:104CF00038BD00BF9C01002038B5064D0023044696
:104D000008462B60FCF75CF8431C02D12B6803B10A
:104D1000236038BD9C01002038B5074D0446084685
:104D2000114600222A601A46FCF754F8431C02D1AF
:104D30002B6803B1236038BD9C01002038B5074DB6
:104D400004460846114600222A601A46FBF7D4FFA3
:104D5000431C02D12B6803B1236038BD9C010020A5
:104D6000F8B500BFF8BC08BC9E467047F8B500BF58
:084D7000F8BC08BC9E46704728
:104D78004550445F34494E325F746573742044650E
:104D88006D6F0D00652D506170657220496E6974F4
:104D980020616E6420436C6561722E2E2E0D00001A
:104DA8006661696C656420746F20616C6C6F636107
:104DB8007465206D656D6F727920666F7220696DFC
:104DC80061676543616368650D000000636F756E18
:104DD800743A202564206469723A2025640D0A001B
:104DE800736F6D657468696E672077656E74207778
:104DF800726F6E670A0D000044656275673A20534A
:104E0800657420696D61676520526F7461746520EF
:104E180025640D0A0000000044656275673A207237
:104E28006F74617465203D20302C2039302C20317E
:104E380038302C203237300D000000004465627590
:104E4800673A20536574205363616C6520496E701E
:104E5800757420706172616D657465722065727217
:104E68006F720D0044656275673A205363616C6523
:104E7800204F6E6C7920737570706F72743A20329F
:104E88002034200D000000006D6972726F720000FE
:104E98006E6F6E650000000044656275673A206DAC
:104EA8006972726F7220696D61676520783A25733F
:104EB8002C20793A25730D0A0000000044656275BC
:104EC800673A206D6972726F722073686F756C64CF
:104ED800206265204D4952524F525F4E4F4E452C2D
:104EE800204D4952524F525F484F52495A4F4E54E3
:104EF800414C2C2020202020202020204D49525297
:104F08004F525F564552544943414C206F72204DD1
:104F18004952524F525F4F524947494E0D000000C7
:104F280044656275673A20457863656564696E67AC
:104F380020646973706C617920626F756E64617248
:104F48006965730D0000000044656275673A20507A
:104F580061696E745F44726177506F696E7420493D
:104F68006E70757420657863656564732074686510
:104F7800206E6F726D616C20646973706C6179204A
:104F880072616E67650D000058706F696E74203D20
:104F9800202564202C205061696E742E5769647432
:104FA80068203D20256420200D0A200059706F6973
:104FB8006E74203D202564202C205061696E742E6B
:104FC800486569676874203D20256420200D0A2003
:104FD8000000000044656275673A205061696E748C
:104FE8005F447261774C696E6520496E70757420F4
:104FF8006578636565647320746865206E6F726D8B
:10500800616C20646973706C61792072616E676588
:105018000D00000044656275673A20496E7075742A
:10502800206578636565647320746865206E6F72A7
:105038006D616C20646973706C61792072616E6750
:10504800650D000044656275673A205061696E74A9
:105058005F44726177436972636C6520496E70754D
:1050680074206578636565647320746865206E6F65
:10507800726D616C20646973706C61792072616E05
:1050880067650D0044656275673A205061696E7402
:105098005F447261774368617220496E707574204D
:1050A8006578636565647320746865206E6F726DDA
:1050B800616C20646973706C61792072616E6765D8
:1050C8000D00000044656275673A205061696E748E
:1050D8005F44726177537472696E675F454E204909
:1050E8006E7075742065786365656473207468658F
:1050F800206E6F726D616C20646973706C617920C9
:1051080072616E67650D000044656275673A2050EC
:1051180061696E745F4469734E756D20496E707570
:1051280074206578636565647320746865206E6FA4
:10513800726D616C20646973706C61792072616E44
:1051480067650D0030313233343536373839000071
:1051580044656275673A20652D50617065722062FA
:105168007573790D0000000044656275673A206523
:105178002D506170657220627573792072656C6557
:105188006173650D000000000000000000000000D1
:1051980001020304060708090000000001020304D5
:1051A800001700000002001717000002000A0100A3
:1051B8000001000E0E0000020000000000000000C8
:1051C8000000000000000000000000004017000080
:1051D8000002901717000002400A01000001A00E0B
:1051E8000E000002000000000000000000000000A7
:1051F80000000000000000004017000000029017A7
:1052080017000002400A01000001A00E0E00000273
:105218000000000000000000000000000000000086
:10522800000000008017000000029017170000021D
:10523800800A01000001500E0E000002000000006C
:105248000000000000000000000000000000000056
:10525800801700000002901717000002800A010062
:105268000001500E0E0000020000000000000000C7
:10527800000000000000000000000000001901000C
:105288000001000000000000000000000000000015
:105298000000000000000000000000000000000006
:1052A80000000000000000000019010000010000DB
:1052B80000000000000000000000000000000000E6
:1052C80000000000000000000000000000000000D6
:1052D800000000008019010000010000000000002B
:1052E80000000000000000000000000000000000B6
:1052F80000000000000000000000000000000000A6
:10530800401901000001000000000000000000003A
:105318000000000000000000000000000000000085
:10532800000000000000000000000000001901005B
:105338000001000000000000000000000000000064
:105348000000000000000000000000000000000055
:105358000000000000000000100000200000000015
:105368000000000000000000000000000000000035
:105378000000000000000000000000000000000025
:105388000000000000000000000000000000000015
:105398000000000000000000000000000000000005
:1053A80000000000000000000000000000000000F5
:1053B800000000000000000000000000232D302B3A
:1053C8002000686C4C0065666745464700303132FE
:1053D8003334353637383941424344454600303155
:1053E80032333435363738396162636465660000B4
:0853F80018AEFF7F0100000068
:04540000C5010008DA
:04540400A1010008FA
:105408000024F4001000000001000000100000203B
:105418000000000084530008A453000864530008E7
:105428000000000000000000000000000000000074
:105438000000000000000000000000000000000064
:105448000000000000000000000000000000000054
:105458000000000000000000000000000000000044
:105468000000000000000000000000000000000034
:0400000508003D09A9
:00000001FF
