:020000040800F2
:100000000080012011280008650A0008710A000814
:10001000770A00087D0A0008830A00080000000033
:10002000000000000000000000000000890A000835
:10003000950A000800000000A10A0008AD0A0008A7
:10004000612800086128000861280008612800086C
:10005000612800086128000861280008612800085C
:10006000612800086128000861280008612800084C
:10007000612800086128000861280008612800083C
:1000800061280008612800086128000800000000BD
:1000900000000000000000000000000061280008CF
:1000A000612800086128000861280008B90A0008D2
:1000B00061280008612800086128000861280008FC
:1000C00061280008612800086128000861280008EC
:1000D000612800086128000861280008000000006D
:1000E000612800086128000861280008000000005D
:1000F000000000000000000000000000612800086F
:10010000000000006128000861280008612800083C
:1001100000000000000000000000000000000000DF
:10012000612800086128000861280008612800088B
:10013000612800080000000000000000000000002E
:10014000000000000000000000000000612800081E
:10015000612800086128000861280008612800085B
:10016000612800086128000800000000000000006D
:10017000000000000000000000000000000000007F
:1001800000000000612800080000000000000000DE
:0401900061280008DA
:1001940010B5054C237833B9044B13B10448AFF3BD
:1001A40000800123237010BD0C000020000000001B
:1001B400BC28000808B5034B1BB103490348AFF33F
:1001C400008008BD0000000010000020BC280008CA
:1001D40053B94AB9002908BF00281CBF4FF0FF31AA
:1001E4004FF0FF3000F06CB9ADF1080C6DE904CEAE
:1001F40000F006F8DDF804E0DDE9022304B07047FE
:100204002DE9F047089E0D4604468E46002B40F02B
:1002140082808A42174646D9B2FA82F24AB1C2F1C2
:10022400200105FA02F320FA01F1974041EA030E96
:1002340094404FEA1748230CBEFBF8FCB9B208FB04
:100244001CEE43EA0E430CFB01F098420AD9FB185A
:100254000CF1FF3580F01681984240F21381ACF125
:10026400020C3B441B1AA4B2B3FBF8F008FB103396
:1002740044EA034400FB01F1A14209D93C1900F10D
:10028400FF3380F00181A14240F2FE8002383C44F9
:10029400641A40EA0C4000211EB1D4400023C6E990
:1002A4000043BDE8F08702B9FFDEB2FA82F2002A09
:1002B4004FD1CB1B4FEA174E1FFA87F80121B3FB2E
:1002C400FEFC250C0EFB1C3345EA034508FB0CF32E
:1002D400AB4207D97D190CF1FF3002D2AB4200F2D8
:1002E400E7808446ED1AA3B2B5FBFEF00EFB105571
:1002F40043EA054408FB00F8A04507D93C1900F17E
:10030400FF3302D2A04500F2D7801846A4EB0804BC
:1003140040EA0C40C0E78B4208D9002E00F0AF80C1
:100324000021C6E900050846BDE8F087B3FA83F169
:1003340000294BD1AB4202D3824200F2B780841A27
:1003440065EB030301209E46002EAAD0C6E9004EA9
:10035400A7E7C2F1200C01FA02F3974020FA0CF04F
:100364004FEA174E21FA0CFC1843BCFBFEF1050CB6
:100374000EFB11CC1FFA87F845EA0C4501FB08F384
:10038400AB4204FA02F409D97D1901F1FF3C80F073
:100394008B80AB4240F2888002393D44EB1A85B22F
:1003A400B3FBFEF00EFB103345EA034500FB08F3F4
:1003B400AB4207D97D1900F1FF3C71D2AB426FD932
:1003C40002383D44EB1A40EA014178E7C1F1200CC0
:1003D4008B4022FA0CF71F4320FA0CF405FA01F3C0
:1003E4004FEA174E25FA0CF51C43230CB5FBFEF916
:1003F4001FFA87F80EFB195543EA054509FB08FA6D
:10040400AA4502FA01F200FA01F308D97D1909F1AB
:10041400FF3047D2AA4545D9A9F102093D44A5EBCD
:100424000A05A4B2B5FBFEF00EFB105544EA0544E0
:1004340000FB08F8A04507D93C1900F1FF352DD27F
:10044400A0452BD902383C4440EA0940A4EB0804F7
:10045400A0FB02894C45C6464D4619D316D05EB161
:10046400B3EB0E0264EB050404FA0CFCCA404CEA3C
:100474000202CC40C6E900240021BDE8F0873146E1
:1004840030460EE7AC46EDE6184601E74345E6D2B2
:10049400B8EB020E69EB07050138E0E72846D3E71D
:1004A40060468FE78146BAE7614677E708464BE73F
:1004B400ACF1020C3D4415E702383C4426E700BF8A
:1004C400704700BF80B500AF00F00AFB00F00AF8E7
:1004D40000F02AF900F0A6F800F06EF800F0FAF83F
:1004E400FEE7000080B594B000AF07F1200330228E
:1004F4000021184602F0D8F907F10C0300221A6013
:100504005A609A60DA601A610023BB60284B1B6C46
:10051400274A43F080531364254B1B6C03F080532C
:10052400BB60BB6800237B60224B1B6823F4404301
:10053400204A43F4004313601E4B1B6803F44043FA
:100544007B607B6802233B620123FB6210233B63D5
:100554000223BB630023FB6308233B6454237B64B3
:100564000223BB640723FB6407F12003184600F051
:10057400CDFD0346002B01D000F064F90F23FB608E
:1005840002233B6100237B614FF48053BB61002352
:10059400FB6107F10C030221184601F027F803461A
:1005A400002B01D000F04EF900BF5037BD4680BD8E
:1005B400003802400070004080B500AF174B184A65
:1005C4001A60164B4FF482725A60144B00229A60E0
:1005D400124B0022DA60114B00221A610F4B0022E9
:1005E4005A610E4B4FF400729A610C4B2822DA6167
:1005F4000A4B00221A62094B00225A62074B00225E
:100604009A62064B0A22DA62044801F0E9F90346C9
:10061400002B01D000F016F900BF80BD2800002097
:100624000030014080B58CB000AF07F10C032422E8
:100634000021184602F038F93B1D00221A605A6066
:10064400224B234A1A60214B00225A601F4B00227E
:100654009A601E4B4FF6FF72DA601C4B4FF4007227
:100664001A611A4B00225A61184B00229A61012325
:10067400FB6000233B6101237B610023BB610F23EB
:10068400FB6102233B6201237B620823BB620023DC
:10069400FB6207F10C0319460C4801F005FA034606
:1006A400002B01D000F0CEF800237B600023BB6058
:1006B4003B1D1946054801F03DFC0346002B01D0C3
:1006C40000F0C0F800BF3037BD4680BD8000002078
:1006D4000000014080B500AF114B124A1A60104B64
:1006E4004FF4E1325A600E4B00229A600C4B002208
:1006F400DA600B4B00221A61094B0C225A61084B39
:1007040000229A61064B0022DA61054801F090FC50
:100714000346002B01D000F095F800BF80BD00BF58
:10072400C00000200044004080B58AB000AF07F14B
:10073400140300221A605A609A60DA601A61002376
:100744003B613C4B1B6B3B4A43F004031363394B43
:100754001B6B03F004033B613B690023FB60354BD7
:100764001B6B344A43F080031363324B1B6B03F05F
:100774008003FB60FB680023BB602E4B1B6B2D4A80
:1007840043F0010313632B4B1B6B03F00103BB60AA
:10079400BB6800237B60274B1B6B264A43F0020394
:1007A4001363244B1B6B03F002037B607B68002202
:1007B4001221214800F092FC002210211F4800F071
:1007C4008DFC4FF400537B611D4BBB610023FB6127
:1007D40007F114031946194800F0FEFA12237B614D
:1007E4000123BB610023FB6100233B6207F1140377
:1007F4001946114800F0F0FA10237B610123BB6114
:100804000023FB6100233B6207F1140319460B48E4
:1008140000F0E2FA20237B610023BB610023FB612B
:1008240007F114031946054800F0D6FA00BF28372B
:10083400BD4680BD0038024000000240000802406E
:100844000000211080B400AF00BFBD4680BC7047DB
:1008540080B582B000AF00237B60104B5B6C0F4A05
:1008640043F4804353640D4B5B6C03F480437B601F
:100874007B6800233B60094B1B6C084A43F08053A0
:100884001364064B1B6C03F080533B603B680720EA
:1008940000F060FA00BF0837BD4680BD0038024052
:1008A40080B58AB000AF786007F1140300221A60A3
:1008B4005A609A60DA601A617B681B68194A93422D
:1008C4002BD100233B61184B5B6C174A43F48053D4
:1008D4005364154B5B6C03F480533B613B69002309
:1008E400FB60114B1B6B104A43F0010313630E4B67
:1008F4001B6B03F00103FB60FB68A0237B610223F5
:10090400BB610023FB6102233B6205237B6207F189
:1009140014031946054800F05FFA00BF2837BD46A6
:1009240080BD00BF0030014000380240000002409A
:1009340080B58AB000AF786007F1140300221A6012
:100944005A609A60DA601A617B681B681D4A934298
:1009540034D100233B611C4B5B6C1B4A43F0010305
:100964005364194B5B6C03F001033B613B69002347
:10097400FB60154B1B6B144A43F001031363124BCA
:100984001B6B03F00103FB60FB684FF440737B6156
:100994000223BB610123FB6100233B6201237B62D1
:1009A40007F114031946094800F016FA0022002141
:1009B4001B2000F0DAF91B2000F0F3F900BF283700
:1009C400BD4680BD000001400038024000000240E6
:1009D40080B58AB000AF786007F1140300221A6072
:1009E4005A609A60DA601A617B681B68194A9342FC
:1009F4002BD100233B61184B1B6C174A43F4003383
:100A04001364154B1B6C03F400333B613B690023F7
:100A1400FB60114B1B6B104A43F0010313630E4B35
:100A24001B6B03F00103FB60FB680C237B61022357
:100A3400BB610023FB6103233B6207237B6207F155
:100A440014031946054800F0C7F900BF2837BD460E
:100A540080BD00BF00440040003802400000024056
:100A640080B400AF00BFBD4680BC704780B400AF07
:100A7400FEE780B400AFFEE780B400AFFEE780B4C9
:100A840000AFFEE780B400AF00BFBD4680BC704736
:100A940080B400AF00BFBD4680BC704780B400AFD7
:100AA40000BFBD4680BC704780B500AF00F06AF857
:100AB40000BF80BD80B500AF024801F087F800BFD9
:100AC40080BD00BF8000002080B400AF034B4FF016
:100AD40000629A6000BFBD4680BC704700ED00E034
:100AE40080B500AF0E4B1B680D4A43F400731360CE
:100AF4000B4B1B680A4A43F480631360084B1B6862
:100B0400074A43F480731360032000F023F90020A4
:100B140000F008F8FFF79CFE0023184680BD00BFD4
:100B2400003C024080B582B000AF7860124B1A6876
:100B3400124B1B7819464FF47A73B3FBF1F3B2FBF3
:100B4400F3F3184600F03BF90346002B01D00123D0
:100B54000EE07B680F2B0AD8002279684FF0FF3033
:100B640000F003F9064A7B681360002300E00123C8
:100B740018460837BD4680BD00000020080000204C
:100B84000400002080B400AF054B1B781A46054BC7
:100B94001B681344034A136000BFBD4680BC704702
:100BA400080000200001002080B400AF024B1B6845
:100BB4001846BD4680BC70470001002080B485B053
:100BC40000AF78607B6803F00703FB600C4BDB68C5
:100BD400BB60BA684FF6FF031340BB60FB681A02A0
:100BE400BB68134343F0BF6343F40033BB60044A60
:100BF400BB68D36000BF1437BD4680BC704700BFDC
:100C040000ED00E080B400AF044BDB681B0A03F086
:100C140007031846BD4680BC704700BF00ED00E0E6
:100C240080B483B000AF0346FB7197F90730002B03
:100C34000BDBFB7903F01F02064997F907305B09C8
:100C4400012000FA02F241F8232000BF0C37BD4610
:100C540080BC704700E100E080B483B000AF03467D
:100C64003960FB7197F90730002B0ADB3B68DAB275
:100C74000C4997F907301201D2B20B4483F80023D0
:100C84000AE03B68DAB20849FB7903F00F03043B3E
:100C94001201D2B20B441A7600BF0C37BD4680BC99
:100CA400704700BF00E100E000ED00E080B489B0CF
:100CB40000AFF860B9607A60FB6803F00703FB617A
:100CC400FB69C3F10703042B28BF0423BB61FB6941
:100CD4000433062B02D9FB69033B00E000237B614C
:100CE4004FF0FF32BB6902FA03F3DA43BB681A40E0
:100CF4007B699A404FF0FF317B6901FA03F3D943D2
:100D04007B680B40134318462437BD4680BC7047AC
:100D140080B582B000AF78607B68013BB3F1807F1F
:100D240001D301230FE00A4A7B68013B53600F2182
:100D34004FF0FF30FFF790FF054B00229A60044B01
:100D440007221A60002318460837BD4680BD00BF3D
:100D540010E000E080B582B000AF78607868FFF7FB
:100D64002DFF00BF0837BD4680BD80B586B000AFFB
:100D74000346B9607A60FB7300237B61FFF742FF8F
:100D840078617A68B9687869FFF790FF024697F945
:100D94000F3011461846FFF75FFF00BF1837BD46F6
:100DA40080BD80B582B000AF0346FB7197F9073070
:100DB4001846FFF735FF00BF0837BD4680BD80B534
:100DC40082B000AF78607868FFF7A2FF0346184648
:100DD4000837BD4680BD000080B489B000AF78609C
:100DE400396000237B6100233B610023BB61002346
:100DF400FB6159E10122FB6902FA03F37B613B6861
:100E04001B687A6913403B613A697B699A4240F0F6
:100E140048813B685B68012B0BD03B685B68022B05
:100E240007D03B685B68112B03D03B685B68122BCF
:100E340030D17B689B68BB61FB695B00032202FACB
:100E440003F3DB43BA691340BB613B68DA68FB69AF
:100E54005B0002FA03F3BA691343BB617B68BA69A6
:100E64009A607B685B68BB610122FB6902FA03F349
:100E7400DB43BA691340BB613B685B681B0903F041
:100E84000102FB6902FA03F3BA691343BB617B688D
:100E9400BA695A607B68DB68BB61FB695B0003224B
:100EA40002FA03F3DB43BA691340BB613B689A68F7
:100EB400FB695B0002FA03F3BA691343BB617B6805
:100EC400BA69DA603B685B68022B03D03B685B68F5
:100ED400122B23D1FB69DA087B68083253F82230DD
:100EE400BB61FB6903F007039B000F2202FA03F3C3
:100EF400DB43BA691340BB613B681A69FB6903F0C1
:100F040007039B0002FA03F3BA691343BB61FB694D
:100F1400DA087B680832B96943F822107B681B68D9
:100F2400BB61FB695B00032202FA03F3DB43BA698A
:100F34001340BB613B685B6803F00302FB695B0021
:100F440002FA03F3BA691343BB617B68BA691A6096
:100F54003B685B6803F08053002B00F0A280002301
:100F6400FB60564B5B6C554A43F480435364534BCC
:100F74005B6C03F48043FB60FB68514AFB699B088C
:100F8400023352F82330BB61FB6903F003039B0077
:100F94000F2202FA03F3DB43BA691340BB617B6897
:100FA400484A934219D07B68474A934213D07B68DE
:100FB400464A93420DD07B68454A934207D07B68EA
:100FC400444A934201D1042308E0072306E00323A3
:100FD40004E0022302E0012300E00023FA6902F0A6
:100FE400030292009340BA691343BB613449FB691D
:100FF4009B080233BA6941F82320374B1B68BB6155
:101004003B69DB43BA691340BB613B685B6803F42B
:101014008033002B03D0BA693B691343BB612E4A6A
:10102400BB6913602C4B5B68BB613B69DB43BA69EA
:101034001340BB613B685B6803F40033002B03D0AF
:10104400BA693B691343BB61234ABB695360224BB2
:101054009B68BB613B69DB43BA691340BB613B6876
:101064005B6803F48013002B03D0BA693B69134314
:10107400BB61194ABB699360174BDB68BB613B6971
:10108400DB43BA691340BB613B685B6803F400133C
:10109400002B03D0BA693B691343BB610E4ABB6999
:1010A400D360FB690133FB61FB690F2B7FF6A2AEB2
:1010B40000BF00BF2437BD4680BC704700380240E3
:1010C40000380140000002400004024000080240D1
:1010D400000C024000100240003C014080B483B088
:1010E40000AF78600B467B8013467B707B78002BC7
:1010F40003D07A887B689A6103E07B881A047B6852
:101104009A6100BF0C37BD4680BC704780B586B07D
:1011140000AF78607B68002B01D101235BE27B6820
:101124001B6803F00103002B75D0A34B9B6803F0ED
:101134000C03042B0CD0A04B9B6803F00C03082B6E
:1011440012D19D4B5B6803F48003B3F5800F0BD180
:10115400994B1B6803F40033002B5BD07B685B68FE
:10116400002B57D1012336E27B685B68B3F5803FDF
:1011740006D1914B1B68904A43F4803313601DE001
:101184007B685B68B3F5A02F0CD18B4B1B688A4A34
:1011940043F480231360884B1B68874A43F48033ED
:1011A40013600BE0844B1B68834A23F48033136081
:1011B400814B1B68804A23F4802313607B685B683F
:1011C400002B13D0FFF7F0FC386108E0FFF7ECFCCC
:1011D40002463B69D31A642B01D90323FBE1764B06
:1011E4001B6803F40033002BF0D014E0FFF7DCFCA1
:1011F400386108E0FFF7D8FC02463B69D31A642B38
:1012040001D90323E7E16C4B1B6803F40033002B83
:10121400F0D100E000BF7B681B6803F00203002BE1
:1012240063D0654B9B6803F00C03002B0BD0624B1F
:101234009B6803F00C03082B1CD15F4B5B6803F421
:101244008003002B16D15C4B1B6803F00203002BB8
:1012540005D07B68DB68012B01D00123BBE1564B31
:101264001B6823F0F8027B681B69DB0052491343B7
:101274000B603AE07B68DB68002B20D04F4B0122E7
:101284001A60FFF791FC386108E0FFF78DFC024615
:101294003B69D31A022B01D903239CE1464B1B68FB
:1012A40003F00203002BF0D0434B1B6823F0F80239
:1012B4007B681B69DB00404913430B6015E03F4B1F
:1012C40000221A60FFF770FC386108E0FFF76CFC3D
:1012D40002463B69D31A022B01D903237BE1364B27
:1012E4001B6803F00203002BF0D17B681B6803F03A
:1012F4000803002B30D07B685B69002B16D0304B81
:1013040001221A60FFF750FC386108E0FFF74CFC3B
:1013140002463B69D31A022B01D903235BE1264B16
:101324005B6F03F00203002BF0D015E0244B002286
:101334001A60FFF739FC386108E0FFF735FC024614
:101344003B69D31A022B01D9032344E11A4B5B6F87
:1013540003F00203002BF0D17B681B6803F0040345
:10136400002B00F0A0800023FB75134B1B6C03F0D3
:101374008053002B0FD10023BB600F4B1B6C0E4A14
:1013840043F0805313640C4B1B6C03F08053BB601D
:10139400BB680123FB750B4B1B6803F48073002BA4
:1013A40021D1084B1B68074A43F480731360FFF78D
:1013B400FBFB386111E000BF0038024000004742E7
:1013C400800E474200700040FFF7EEFB02463B6987
:1013D400D31A022B01D90323FDE0814B1B6803F4CC
:1013E4008073002BF0D07B689B68012B06D17D4B6A
:1013F4001B6F7C4A43F0010313671CE07B689B6806
:10140400052B0CD1774B1B6F764A43F0040313670B
:10141400744B1B6F734A43F0010313670BE0714B6A
:101424001B6F704A23F0010313676E4B1B6F6D4AE9
:1014340023F0040313677B689B68002B15D0FFF728
:10144400B3FB38610AE0FFF7AFFB02463B69D31AEE
:1014540041F28832934201D90323BCE0614B1B6FF4
:1014640003F00203002BEED014E0FFF79DFB38617C
:101474000AE0FFF799FB02463B69D31A41F288322E
:10148400934201D90323A6E0564B1B6F03F00203DA
:10149400002BEED1FB7D012B05D1524B1B6C514A25
:1014A40023F0805313647B689B69002B00F09280C7
:1014B4004C4B9B6803F00C03082B5CD07B689B6946
:1014C400022B41D1484B00221A60FFF76DFB3861B3
:1014D40008E0FFF769FB02463B69D31A022B01D9E6
:1014E400032378E03F4B1B6803F00073002BF0D11B
:1014F4007B68DA697B681B6A1A437B685B6A9B01B9
:101504001A437B689B6A5B08013B1B041A437B6894
:10151400DB6A1B06334913434B60334B01221A60C9
:10152400FFF742FB386108E0FFF73EFB02463B69E8
:10153400D31A022B01D903234DE02A4B1B6803F075
:101544000073002BF0D045E0274B00221A60FFF710
:101554002BFB386108E0FFF727FB02463B69D31AEF
:10156400022B01D9032336E01E4B1B6803F00073E2
:10157400002BF0D12EE07B689B69012B01D1012364
:1015840029E0184B5B68FB60FB6803F480027B680E
:10159400DB699A421CD1FB6803F03F027B681B6A3B
:1015A4009A4215D1FA6847F6C07313407A68526AB2
:1015B40093420DD1FB6803F440327B689B6A9A42E4
:1015C40006D1FB6803F070627B68DB6A9A4201D043
:1015D400012300E0002318461837BD4680BD00BF34
:1015E40000700040003802406000474280B584B07B
:1015F40000AF786039607B68002B01D10123CCE017
:10160400684B1B6803F00F033A689A420CD9654B88
:101614003A68D2B21A70634B1B6803F00F033A683E
:101624009A4201D00123B8E07B681B6803F00203EF
:10163400002B20D07B681B6803F00403002B05D02B
:10164400594B9B68584A43F4E05393607B681B688A
:1016540003F00803002B05D0534B9B68524A43F414
:1016640060439360504B9B6823F0F0027B689B6857
:101674004D4913438B607B681B6803F00103002B07
:1016840044D07B685B68012B07D1474B1B6803F48C
:101694000033002B19D101237FE07B685B68022BA8
:1016A40003D07B685B68032B07D13F4B1B6803F0B7
:1016B4000073002B09D101236FE03B4B1B6803F03F
:1016C4000203002B01D1012367E0374B9B6823F011
:1016D40003027B685B68344913438B60FFF764FA49
:1016E400F8600AE0FFF760FA0246FB68D31A41F299
:1016F4008832934201D903234FE02B4B9B6803F0BC
:101704000C027B685B689B009A42EBD1254B1B68FB
:1017140003F00F033A689A420CD2224B3A68D2B2D1
:101724001A70204B1B6803F00F033A689A4201D0E9
:10173400012332E07B681B6803F00403002B08D00C
:10174400194B9B6823F4E0527B68DB68164913430A
:101754008B607B681B6803F00803002B09D0124BD5
:101764009B6823F460427B681B69DB000E491343CA
:101774008B6000F021F802460B4B9B681B0903F0B9
:101784000F030A49CB5C22FA03F3094A1360094B9D
:101794001B681846FFF7C6F9002318461037BD46E4
:1017A40080BD00BF003C024000380240D42800083D
:1017B40000000020040000202DE9B04384B000AFF5
:1017C40000237B600023FB6000233B600023BB609D
:1017D400674B9B6803F00C03082B0DD0082B00F219
:1017E400BD80002B02D0042B03D0B7E0614BBB605B
:1017F400B7E0614BBB60B4E05D4B5B6803F03F0353
:101804007B605B4B5B6803F48003002B4DD0584B2B
:101814005B689B091A464FF0000340F2FF104FF03B
:10182400000102EA000803EA0109404649464FF074
:1018340000024FF000034B0143EAD063420110461B
:101844001946B0EB080061EB09014FF000024FF0BC
:1018540000038B0143EA90638201121A63EB0103D4
:101864004FF000004FF00001D90041EA5271D0005E
:1018740002460B4612EB080243EB09034FF000004B
:101884004FF00001590241EAD251500202460B4680
:10189400104619467B681A464FF00003FEF798FC81
:1018A40002460B461346FB604AE0314B5B689B09DA
:1018B4001A464FF0000340F2FF104FF0000102EA15
:1018C400000403EA0105204629464FF000024FF0C8
:1018D40000034B0143EAD063420110461946001B42
:1018E40061EB05014FF000024FF000038B0143EA66
:1018F40090638201121A63EB01034FF000004FF072
:101904000001D90041EA5271D00002460B46121977
:1019140045EB03034FF000004FF00001990241EA48
:101924009251900202460B46104619467B681A46AD
:101934004FF00003FEF74CFC02460B461346FB60D7
:101944000B4B5B681B0C03F0030301335B003B6030
:10195400FA683B68B2FBF3F3BB6002E0054BBB6083
:1019640000BFBB6818461037BD46BDE8B08300BF52
:10197400003802400024F40000127A0080B400AF62
:10198400024B1B681846BD4680BC7047000000200F
:1019940080B500AFFFF7F2FF0246054B9B689B0A38
:1019A40003F007030349CB5C22FA03F3184680BD16
:1019B40000380240E428000880B500AFFFF7DEFFDE
:1019C4000246054B9B685B0B03F007030349CB5CA2
:1019D40022FA03F3184680BD00380240E4280008C8
:1019E40080B582B000AF78607B68002B01D1012301
:1019F40056E07B6800229A627B6893F85130DBB230
:101A0400002B06D17B68002283F850207868FEF70B
:101A140047FF7B68022283F851207B681B681A68A1
:101A24007B681B6822F040021A607B685A687B68F6
:101A34009B681A437B68DB681A437B681B691A43FB
:101A44007B685B691A437B689B6903F400731A43E0
:101A54007B68DB691A437B681B6A42EA03017B6883
:101A64009A6A7B681B680A431A607B689B691B0C33
:101A740003F004017B685A6A7B681B680A435A6056
:101A84007B681B68DA697B681B6822F40062DA6190
:101A94007B6800225A657B68012283F85120002369
:101AA40018460837BD4680BD80B586B000AF786063
:101AB40039607B68002B01D1012383E07B6893F8B4
:101AC4003D30DBB2002B06D17B68002283F83C203A
:101AD4007868FEF72DFF7B68022283F83D207B683F
:101AE4001B689B687A68126823F4804323F0070319
:101AF40093607B681A687B6804331946104600F0CB
:101B04009BF97B681B689B687B617B681B689B698E
:101B14003B617B681B681B6AFB603B681B687A69D6
:101B240013437B613B6923F4407323F003033B615C
:101B34003B689A683B689B691B0213433A691343E9
:101B44003B613B6923F4406323F00C033B613B6935
:101B540023F4704323F0F0033B613B68DA683B688D
:101B6400DB691B0213433A6913433B613B681B69FE
:101B74001A013B681B6A1B0313433A6913433B6115
:101B8400FB6823F02203FB60FB6823F08803FB60FF
:101B94003B685A683B685B691B011343FA6813434B
:101BA400FB607B681B687A699A607B681B683A698A
:101BB4009A617B681B68FA681A627B68012283F861
:101BC4003D20002318461837BD4680BD80B582B03D
:101BD40000AF78607B681B681B6903F00203022B6B
:101BE40022D17B681B68DB6803F00203022B1BD144
:101BF4007B681B686FF002021A617B6801221A7706
:101C04007B681B689B6903F00303002B03D078688F
:101C140000F0F6F805E0786800F0E9F8786800F07C
:101C2400F8F87B6800221A777B681B681B6903F04D
:101C34000403042B22D17B681B68DB6803F00403D4
:101C4400042B1BD17B681B686FF004021A617B684C
:101C540002221A777B681B689B6903F44073002B8C
:101C640003D0786800F0CCF805E0786800F0BFF89D
:101C7400786800F0CEF87B6800221A777B681B68CE
:101C84001B6903F00803082B22D17B681B68DB68FF
:101C940003F00803082B1BD17B681B686FF0080254
:101CA4001A617B6804221A777B681B68DB6903F07E
:101CB4000303002B03D0786800F0A2F805E07868ED
:101CC40000F095F8786800F0A4F87B6800221A7791
:101CD4007B681B681B6903F01003102B22D17B68FF
:101CE4001B68DB6803F01003102B1BD17B681B6897
:101CF4006FF010021A617B6808221A777B681B68F0
:101D0400DB6903F44073002B03D0786800F078F8A3
:101D140005E0786800F06BF8786800F07AF87B6882
:101D240000221A777B681B681B6903F00103012BEF
:101D34000ED17B681B68DB6803F00103012B07D11C
:101D44007B681B686FF001021A61786800F046F83E
:101D54007B681B681B6903F08003802B0ED17B68B2
:101D64001B68DB6803F08003802B07D17B681B684A
:101D74006FF080021A61786800F051F97B681B6883
:101D84001B6903F04003402B0ED17B681B68DB68A2
:101D940003F04003402B07D17B681B686FF04002BF
:101DA4001A61786800F03EF87B681B681B6903F0D1
:101DB4002003202B0ED17B681B68DB6803F0200313
:101DC400202B07D17B681B686FF020021A617868AA
:101DD40000F01CF900BF0837BD4680BD80B483B055
:101DE40000AF786000BF0C37BD4680BC704780B43C
:101DF40083B000AF786000BF0C37BD4680BC70472D
:101E040080B483B000AF786000BF0C37BD4680BC9F
:101E1400704780B483B000AF786000BF0C37BD4614
:101E240080BC704780B483B000AF786000BF0C37CB
:101E3400BD4680BC7047000080B485B000AF7860B8
:101E440039607B681B68FB607B68334A93420FD020
:101E54007B68B3F1804F0BD07B68304A934207D044
:101E64007B682F4A934203D07B682E4A934208D161
:101E7400FB6823F07003FB603B685B68FA681343FC
:101E8400FB607B68244A93421BD07B68B3F1804F8C
:101E940017D07B68214A934213D07B68204A93422F
:101EA4000FD07B681F4A93420BD07B681E4A934233
:101EB40007D07B681D4A934203D07B681C4A934237
:101EC40008D1FB6823F44073FB603B68DB68FA6865
:101ED4001343FB60FB6823F080023B685B69134398
:101EE400FB607B68FA681A603B689A687B68DA6210
:101EF4003B681A687B689A627B68074A934203D1FD
:101F04003B681A697B681A637B6801225A6100BFC7
:101F14001437BD4680BC70470000014000040040F7
:101F240000080040000C0040004001400044014013
:101F34000048014080B485B000AF786039607B68A8
:101F440093F83C30012B01D1022350E07B6801223D
:101F540083F83C207B68022283F83D207B681B6861
:101F64005B68FB607B681B689B68BB60FB6823F055
:101F74007003FB603B681B68FA681343FB607B6873
:101F84001B68FA685A607B681B681B4A934218D026
:101F94007B681B68B3F1804F13D07B681B68174ABA
:101FA40093420ED07B681B68154A934209D07B6824
:101FB4001B68144A934204D07B681B68124A9342FC
:101FC4000CD1BB6823F08003BB603B685B68BA68D4
:101FD4001343BB607B681B68BA689A607B68012204
:101FE40083F83D207B68002283F83C2000231846B8
:101FF4001437BD4680BC7047000001400004004017
:1020040000080040000C00400040014080B483B050
:1020140000AF786000BF0C37BD4680BC704780B409
:1020240083B000AF786000BF0C37BD4680BC7047FA
:1020340080B582B000AF78607B68002B01D10123AA
:102044003FE07B6893F83930DBB2002B06D17B6824
:10205400002283F838207868FEF7BAFC7B682422D3
:1020640083F839207B681B68DA687B681B6822F474
:102074000052DA60786800F029F87B681B681A69F6
:102084007B681B6822F490421A617B681B685A695A
:102094007B681B6822F02A025A617B681B68DA6835
:1020A4007B681B6842F40052DA607B680022DA63C2
:1020B4007B68202283F839207B68202283F83A2029
:1020C400002318460837BD4680BD00002DE9F04FB7
:1020D400BDB000AFC7F8E400D7F8E4301B681B6953
:1020E40023F44050D7F8E430D968D7F8E4301A68BC
:1020F40040EA01031361D7F8E4309A68D7F8E43072
:102104001B691A43D7F8E4305B691A43D7F8E43003
:10211400DB691343C7F8EC30D7F8E4301B68DB689D
:1021240023F4164121F00C01D7F8E4301A68D7F8EB
:10213400EC300B43D360D7F8E4301B685B6923F4BD
:102144004070D7F8E4309969D7F8E4301A6840EA67
:1021540001035361D7F8E430DB69B3F5004F40F075
:10216400A681D7F8E4301A686A4B9A4206D0D7F8A9
:10217400E4301A68684B9A4240F0D280FFF71CFCA6
:10218400C7F8E800D7F8E8301C464FF000052246AF
:102194002B469118C7F888105B41C7F88C30D7E9F3
:1021A4002223121945EB03034FF000004FF0000106
:1021B400D90041EA5271D00002460B461119C7F802
:1021C400D8106B41C7F8DC30D7F8E4305B681A46A6
:1021D4004FF000039118C7F880105B41C7F88430B2
:1021E400D7E92023D7E93601FDF7F2FF02460B4673
:1021F4004A4BA3FB02235B091E01D7F8E8301C46B7
:102204004FF0000522462B469118B9675B41FB67E6
:10221400D7E91E23121945EB03034FF000004FF0DA
:102224000001D90041EA5271D00002460B4611194F
:10223400C7F8D0106B41C7F8D430D7F8E4305B68E6
:102244001A464FF00003911839675B417B67D7E961
:102254001C23D7E93401FDF7BBFF02460B462F4B85
:10226400A3FB02135B09642101FB03F3D31ADB0014
:1022740032332A4AA2FB03235B095B0003F4F8739D
:102284001E44D7F8E83018464FF0000102460B46CA
:102294009418BC665B41FB66D7E91A23121841EB1C
:1022A40003034FF000044FF00005DD0045EA5275CA
:1022B400D40022462B461418C7F8C8404B41C7F82F
:1022C400CC30D7F8E4305B681A464FF0000391181D
:1022D40039665B417B66D7E91823D7E93201FDF7FC
:1022E40077FF02460B460D4BA3FB02135B096421E7
:1022F40001FB03F3D31ADB003233084AA2FB0323A6
:102304005B0903F00702D7F8E4301B6832449A6093
:1023140074E200BF00100140001401401F85EB511E
:10232400FFF736FBC7F8E800D7F8E8301C464FF053
:10233400000522462B469118B9655B41FB65D7E938
:102344001623121945EB03034FF000004FF0000170
:10235400D90041EA5271D00002460B461119C7F860
:10236400C0106B41C7F8C430D7F8E4305B681A4634
:102374004FF00003911839655B417B65D7E914235D
:10238400D7E93001FDF724FF02460B46B34BA3FB0C
:1023940002235B091E01D7F8E8301C464FF0000504
:1023A40022462B469118B9645B41FB64D7E912239A
:1023B400121945EB03034FF000004FF00001D90060
:1023C40041EA5271D00002460B461119C7F8B81001
:1023D4006B41C7F8BC30D7F8E4305B681A464FF05D
:1023E4000003911839645B417B64D7E91023D7E972
:1023F4002E01FDF7EDFE02460B46984BA3FB02139C
:102404005B09642101FB03F3D31ADB003233934AE3
:10241400A2FB03235B095B0003F4F8731E44D7F8A3
:10242400E83018464FF0000102460B469418BC638E
:102434005B41FB63D7E90E23121841EB03034FF012
:1024440000044FF00005DD0045EA5275D400224631
:102454002B461418C7F8B0404B41C7F8B430D7F82E
:10246400E4305B681A464FF00003911839635B410E
:102474007B63D7E90C23D7E92C01FDF7A9FE0246BB
:102484000B46764BA3FB02135B09642101FB03F3A8
:10249400D31ADB003233714AA2FB03235B0903F036
:1024A4000702D7F8E4301B6832449A60A6E1D7F8F3
:1024B400E4301A686A4B9A4206D0D7F8E4301A68B6
:1024C400684B9A4240F0D080FFF776FAC7F8E800EC
:1024D400D7F8E8301C464FF0000522462B469118E9
:1024E400B9625B41FB62D7E90A23121945EB030386
:1024F4004FF000004FF00001D90041EA5271D000C2
:1025040002460B4612EB040A43EB050BD7F8E43002
:102514005B6818464FF000014FF000024FF00003D3
:102524008B0043EA9073820050465946FDF750FEF3
:1025340002460B46494BA3FB02235B091E01D7F855
:10254400E83018464FF0000102460B4694183C62EE
:102554005B417B62D7E90823121841EB03034FF078
:1025640000044FF00005DD0045EA5275D400224610
:102574002B461418C7F8A8404B41C7F8AC30D7F81D
:10258400E4305B6818464FF000014FF000024FF052
:1025940000038B0043EA90738200D7E92A01FDF718
:1025A40017FE02460B462D4BA3FB02135B09642165
:1025B40001FB03F3D31A1B013233284AA2FB032382
:1025C4005B0903F0F0031E44D7F8E83018464FF0D7
:1025D400000102460B469418BC615B41FB61D7E9DC
:1025E4000623121841EB03034FF000044FF00005DB
:1025F400DD0045EA5275D40022462B461418C7F86C
:10260400A0404B41C7F8A430D7F8E4305B681846C3
:102614004FF000014FF000024FF000038B0043EA3B
:1026240090738200D7E92801FDF7D2FD02460B46DC
:102634000A4BA3FB02135B09642101FB03F3D31AC6
:102644001B013233054AA2FB03235B0903F00F028B
:10265400D7F8E4301B6832449A60CFE01F85EB5111
:102664000010014000140140FFF792F9C7F8E80098
:10267400D7F8E8301C464FF0000522462B46911847
:1026840039615B417B61D7E90423121945EB0303EC
:102694004FF000004FF00001D90041EA5271D00020
:1026A40002460B4612EB040843EB0509D7F8E43065
:1026B4005B6818464FF000014FF000024FF0000332
:1026C4008B0043EA9073820040464946FDF780FD43
:1026D40002460B464C4BA3FB02235B091E01D7F8B1
:1026E400E83018464FF0000102460B469418BC60CF
:1026F4005B41FB60D7E90223121841EB03034FF05F
:1027040000044FF00005DD0045EA5275D40022466E
:102714002B461418C7F898404B41C7F89C30D7F89B
:10272400E4305B6818464FF000014FF000024FF0B0
:1027340000038B0043EA90738200D7E92601FDF77A
:1027440047FD02460B46304BA3FB02135B09642191
:1027540001FB03F3D31A1B0132332B4AA2FB0323DD
:102764005B0903F0F0031E44D7F8E83018464FF035
:10277400000102460B4694183C605B417B60D7E93C
:102784000023121841EB03034FF000044FF000053F
:10279400DD0045EA5275D40022462B461418C7F8CA
:1027A40090404B41C7F89430D7F8E4305B68184642
:1027B4004FF000014FF000024FF000038B0043EA9A
:1027C40090738200D7E92401FDF702FD02460B460F
:1027D4000D4BA3FB02135B09642101FB03F3D31A22
:1027E4001B013233084AA2FB03235B0903F00F02E7
:1027F400D7F8E4301B6832449A60FFE700BFF4372F
:10280400BD46BDE8F08F00BF1F85EB51DFF834D023
:10281400002103E00C4B5B58435004310B480C4B34
:1028240042189A42F6D30B4A02E0002342F8043BD2
:10283400094B9A42F9D3FEF747F900F011F8FDF776
:1028440041FE704700800120FC28000800000020A1
:102854000C0000200C00002004010020FEE7000012
:1028640070B50D4D0D4C641BA4100026A64209D171
:102874000B4D0C4C00F020F8641BA4100026A6425B
:1028840005D170BD55F8043B98470136EEE755F87D
:10289400043B98470136F2E7F4280008F4280008BE
:1028A400F4280008F828000802440346934200D1A3
:1028B400704703F8011BF9E7F8B500BFF8BC08BC82
:1028C4009E467047F8B500BFF8BC08BC9E467047EA
:1028D40000000000000000000102030406070809CC
:0828E4000000000001020304E2
:0828EC0018D9FF7F0100000074
:0428F400B90100081E
:0428F800950100083E
:0C28FC000024F4001000000001000000A7
:0400000508002811B6
:00000001FF
